{
  "contractName": "NftMint",
  "abi": [
    {
      "inputs": [],
      "stateMutability": "nonpayable",
      "type": "constructor"
    },
    {
      "anonymous": false,
      "inputs": [
        {
          "indexed": true,
          "internalType": "address",
          "name": "owner",
          "type": "address"
        },
        {
          "indexed": true,
          "internalType": "address",
          "name": "approved",
          "type": "address"
        },
        {
          "indexed": true,
          "internalType": "uint256",
          "name": "tokenId",
          "type": "uint256"
        }
      ],
      "name": "Approval",
      "type": "event"
    },
    {
      "anonymous": false,
      "inputs": [
        {
          "indexed": true,
          "internalType": "address",
          "name": "owner",
          "type": "address"
        },
        {
          "indexed": true,
          "internalType": "address",
          "name": "operator",
          "type": "address"
        },
        {
          "indexed": false,
          "internalType": "bool",
          "name": "approved",
          "type": "bool"
        }
      ],
      "name": "ApprovalForAll",
      "type": "event"
    },
    {
      "anonymous": false,
      "inputs": [
        {
          "indexed": false,
          "internalType": "uint256",
          "name": "_fromTokenId",
          "type": "uint256"
        },
        {
          "indexed": false,
          "internalType": "uint256",
          "name": "_toTokenId",
          "type": "uint256"
        }
      ],
      "name": "BatchMetadataUpdate",
      "type": "event"
    },
    {
      "anonymous": false,
      "inputs": [
        {
          "indexed": false,
          "internalType": "uint256",
          "name": "_tokenId",
          "type": "uint256"
        }
      ],
      "name": "MetadataUpdate",
      "type": "event"
    },
    {
      "anonymous": false,
      "inputs": [
        {
          "indexed": true,
          "internalType": "address",
          "name": "from",
          "type": "address"
        },
        {
          "indexed": true,
          "internalType": "address",
          "name": "to",
          "type": "address"
        },
        {
          "indexed": true,
          "internalType": "uint256",
          "name": "tokenId",
          "type": "uint256"
        }
      ],
      "name": "Transfer",
      "type": "event"
    },
    {
      "inputs": [
        {
          "internalType": "address",
          "name": "to",
          "type": "address"
        },
        {
          "internalType": "uint256",
          "name": "tokenId",
          "type": "uint256"
        }
      ],
      "name": "approve",
      "outputs": [],
      "stateMutability": "nonpayable",
      "type": "function"
    },
    {
      "inputs": [
        {
          "internalType": "address",
          "name": "owner",
          "type": "address"
        }
      ],
      "name": "balanceOf",
      "outputs": [
        {
          "internalType": "uint256",
          "name": "",
          "type": "uint256"
        }
      ],
      "stateMutability": "view",
      "type": "function",
      "constant": true
    },
    {
      "inputs": [
        {
          "internalType": "uint256",
          "name": "tokenId",
          "type": "uint256"
        }
      ],
      "name": "getApproved",
      "outputs": [
        {
          "internalType": "address",
          "name": "",
          "type": "address"
        }
      ],
      "stateMutability": "view",
      "type": "function",
      "constant": true
    },
    {
      "inputs": [
        {
          "internalType": "address",
          "name": "owner",
          "type": "address"
        },
        {
          "internalType": "address",
          "name": "operator",
          "type": "address"
        }
      ],
      "name": "isApprovedForAll",
      "outputs": [
        {
          "internalType": "bool",
          "name": "",
          "type": "bool"
        }
      ],
      "stateMutability": "view",
      "type": "function",
      "constant": true
    },
    {
      "inputs": [],
      "name": "name",
      "outputs": [
        {
          "internalType": "string",
          "name": "",
          "type": "string"
        }
      ],
      "stateMutability": "view",
      "type": "function",
      "constant": true
    },
    {
      "inputs": [
        {
          "internalType": "uint256",
          "name": "",
          "type": "uint256"
        }
      ],
      "name": "nftDetails",
      "outputs": [
        {
          "internalType": "address",
          "name": "creator",
          "type": "address"
        },
        {
          "internalType": "uint256",
          "name": "timestamp",
          "type": "uint256"
        }
      ],
      "stateMutability": "view",
      "type": "function",
      "constant": true
    },
    {
      "inputs": [
        {
          "internalType": "uint256",
          "name": "tokenId",
          "type": "uint256"
        }
      ],
      "name": "ownerOf",
      "outputs": [
        {
          "internalType": "address",
          "name": "",
          "type": "address"
        }
      ],
      "stateMutability": "view",
      "type": "function",
      "constant": true
    },
    {
      "inputs": [
        {
          "internalType": "address",
          "name": "from",
          "type": "address"
        },
        {
          "internalType": "address",
          "name": "to",
          "type": "address"
        },
        {
          "internalType": "uint256",
          "name": "tokenId",
          "type": "uint256"
        }
      ],
      "name": "safeTransferFrom",
      "outputs": [],
      "stateMutability": "nonpayable",
      "type": "function"
    },
    {
      "inputs": [
        {
          "internalType": "address",
          "name": "from",
          "type": "address"
        },
        {
          "internalType": "address",
          "name": "to",
          "type": "address"
        },
        {
          "internalType": "uint256",
          "name": "tokenId",
          "type": "uint256"
        },
        {
          "internalType": "bytes",
          "name": "data",
          "type": "bytes"
        }
      ],
      "name": "safeTransferFrom",
      "outputs": [],
      "stateMutability": "nonpayable",
      "type": "function"
    },
    {
      "inputs": [
        {
          "internalType": "address",
          "name": "operator",
          "type": "address"
        },
        {
          "internalType": "bool",
          "name": "approved",
          "type": "bool"
        }
      ],
      "name": "setApprovalForAll",
      "outputs": [],
      "stateMutability": "nonpayable",
      "type": "function"
    },
    {
      "inputs": [
        {
          "internalType": "bytes4",
          "name": "interfaceId",
          "type": "bytes4"
        }
      ],
      "name": "supportsInterface",
      "outputs": [
        {
          "internalType": "bool",
          "name": "",
          "type": "bool"
        }
      ],
      "stateMutability": "view",
      "type": "function",
      "constant": true
    },
    {
      "inputs": [],
      "name": "symbol",
      "outputs": [
        {
          "internalType": "string",
          "name": "",
          "type": "string"
        }
      ],
      "stateMutability": "view",
      "type": "function",
      "constant": true
    },
    {
      "inputs": [
        {
          "internalType": "uint256",
          "name": "tokenId",
          "type": "uint256"
        }
      ],
      "name": "tokenURI",
      "outputs": [
        {
          "internalType": "string",
          "name": "",
          "type": "string"
        }
      ],
      "stateMutability": "view",
      "type": "function",
      "constant": true
    },
    {
      "inputs": [
        {
          "internalType": "address",
          "name": "from",
          "type": "address"
        },
        {
          "internalType": "address",
          "name": "to",
          "type": "address"
        },
        {
          "internalType": "uint256",
          "name": "tokenId",
          "type": "uint256"
        }
      ],
      "name": "transferFrom",
      "outputs": [],
      "stateMutability": "nonpayable",
      "type": "function"
    },
    {
      "inputs": [
        {
          "internalType": "string",
          "name": "tokenURI",
          "type": "string"
        }
      ],
      "name": "mintNFT",
      "outputs": [
        {
          "internalType": "uint256",
          "name": "",
          "type": "uint256"
        }
      ],
      "stateMutability": "nonpayable",
      "type": "function"
    },
    {
      "inputs": [
        {
          "internalType": "uint256",
          "name": "tokenId",
          "type": "uint256"
        }
      ],
      "name": "getNFTInfo",
      "outputs": [
        {
          "internalType": "address",
          "name": "creator",
          "type": "address"
        },
        {
          "internalType": "uint256",
          "name": "timestamp",
          "type": "uint256"
        }
      ],
      "stateMutability": "view",
      "type": "function",
      "constant": true
    }
  ],
  "bytecode": "0x608060405234801561000f575f5ffd5b506040518060400160405280600781526020017f44654d614e4654000000000000000000000000000000000000000000000000008152506040518060400160405280600381526020017f444d540000000000000000000000000000000000000000000000000000000000815250815f908161008a91906102df565b50806001908161009a91906102df565b5050506103ae565b5f81519050919050565b7f4e487b71000000000000000000000000000000000000000000000000000000005f52604160045260245ffd5b7f4e487b71000000000000000000000000000000000000000000000000000000005f52602260045260245ffd5b5f600282049050600182168061011d57607f821691505b6020821081036101305761012f6100d9565b5b50919050565b5f819050815f5260205f209050919050565b5f6020601f8301049050919050565b5f82821b905092915050565b5f600883026101927fffffffffffffffffffffffffffffffffffffffffffffffffffffffffffffffff82610157565b61019c8683610157565b95508019841693508086168417925050509392505050565b5f819050919050565b5f819050919050565b5f6101e06101db6101d6846101b4565b6101bd565b6101b4565b9050919050565b5f819050919050565b6101f9836101c6565b61020d610205826101e7565b848454610163565b825550505050565b5f5f905090565b610224610215565b61022f8184846101f0565b505050565b5b81811015610252576102475f8261021c565b600181019050610235565b5050565b601f8211156102975761026881610136565b61027184610148565b81016020851015610280578190505b61029461028c85610148565b830182610234565b50505b505050565b5f82821c905092915050565b5f6102b75f198460080261029c565b1980831691505092915050565b5f6102cf83836102a8565b9150826002028217905092915050565b6102e8826100a2565b67ffffffffffffffff811115610301576103006100ac565b5b61030b8254610106565b610316828285610256565b5f60209050601f831160018114610347575f8415610335578287015190505b61033f85826102c4565b8655506103a6565b601f19841661035586610136565b5f5b8281101561037c57848901518255600182019150602085019450602081019050610357565b868310156103995784890151610395601f8916826102a8565b8355505b6001600288020188555050505b505050505050565b612c1a806103bb5f395ff3fe608060405234801561000f575f5ffd5b50600436106100fe575f3560e01c80637d4cd84711610095578063c87b56dd11610064578063c87b56dd146102bb578063d188929f146102eb578063e985e9c51461031c578063fb37e8831461034c576100fe565b80637d4cd8471461023457806395d89b4114610265578063a22cb46514610283578063b88d4fde1461029f576100fe565b806323b872dd116100d157806323b872dd1461019c57806342842e0e146101b85780636352211e146101d457806370a0823114610204576100fe565b806301ffc9a71461010257806306fdde0314610132578063081812fc14610150578063095ea7b314610180575b5f5ffd5b61011c60048036038101906101179190611b22565b61037c565b6040516101299190611b67565b60405180910390f35b61013a6103dc565b6040516101479190611bf0565b60405180910390f35b61016a60048036038101906101659190611c43565b61046b565b6040516101779190611cad565b60405180910390f35b61019a60048036038101906101959190611cf0565b6104ad565b005b6101b660048036038101906101b19190611d2e565b6105c3565b005b6101d260048036038101906101cd9190611d2e565b610623565b005b6101ee60048036038101906101e99190611c43565b610642565b6040516101fb9190611cad565b60405180910390f35b61021e60048036038101906102199190611d7e565b6106c6565b60405161022b9190611db8565b60405180910390f35b61024e60048036038101906102499190611c43565b61077a565b60405161025c929190611dd1565b60405180910390f35b61026d6107b9565b60405161027a9190611bf0565b60405180910390f35b61029d60048036038101906102989190611e22565b610849565b005b6102b960048036038101906102b49190611f8c565b61085f565b005b6102d560048036038101906102d09190611c43565b6108c1565b6040516102e29190611bf0565b60405180910390f35b61030560048036038101906103009190611c43565b6109cb565b604051610313929190611dd1565b60405180910390f35b6103366004803603810190610331919061200c565b610a5d565b6040516103439190611b67565b60405180910390f35b610366600480360381019061036191906120e8565b610aeb565b6040516103739190611db8565b60405180910390f35b5f634906490660e01b7bffffffffffffffffffffffffffffffffffffffffffffffffffffffff1916827bffffffffffffffffffffffffffffffffffffffffffffffffffffffff191614806103d557506103d482610bb3565b5b9050919050565b60605f80546103ea9061215c565b80601f01602080910402602001604051908101604052809291908181526020018280546104169061215c565b80156104615780601f1061043857610100808354040283529160200191610461565b820191905f5260205f20905b81548152906001019060200180831161044457829003601f168201915b5050505050905090565b5f61047582610c94565b60045f8381526020019081526020015f205f9054906101000a900473ffffffffffffffffffffffffffffffffffffffff169050919050565b5f6104b782610642565b90508073ffffffffffffffffffffffffffffffffffffffff168373ffffffffffffffffffffffffffffffffffffffff1603610527576040517f08c379a000000000000000000000000000000000000000000000000000000000815260040161051e906121fc565b60405180910390fd5b8073ffffffffffffffffffffffffffffffffffffffff16610546610cdf565b73ffffffffffffffffffffffffffffffffffffffff16148061057557506105748161056f610cdf565b610a5d565b5b6105b4576040517f08c379a00000000000000000000000000000000000000000000000000000000081526004016105ab9061228a565b60405180910390fd5b6105be8383610ce6565b505050565b6105d46105ce610cdf565b82610d9c565b610613576040517f08c379a000000000000000000000000000000000000000000000000000000000815260040161060a90612318565b60405180910390fd5b61061e838383610e30565b505050565b61063d83838360405180602001604052805f81525061085f565b505050565b5f5f61064d8361111c565b90505f73ffffffffffffffffffffffffffffffffffffffff168173ffffffffffffffffffffffffffffffffffffffff16036106bd576040517f08c379a00000000000000000000000000000000000000000000000000000000081526004016106b490612380565b60405180910390fd5b80915050919050565b5f5f73ffffffffffffffffffffffffffffffffffffffff168273ffffffffffffffffffffffffffffffffffffffff1603610735576040517f08c379a000000000000000000000000000000000000000000000000000000000815260040161072c9061240e565b60405180910390fd5b60035f8373ffffffffffffffffffffffffffffffffffffffff1673ffffffffffffffffffffffffffffffffffffffff1681526020019081526020015f20549050919050565b6008602052805f5260405f205f91509050805f015f9054906101000a900473ffffffffffffffffffffffffffffffffffffffff16908060010154905082565b6060600180546107c89061215c565b80601f01602080910402602001604051908101604052809291908181526020018280546107f49061215c565b801561083f5780601f106108165761010080835404028352916020019161083f565b820191905f5260205f20905b81548152906001019060200180831161082257829003601f168201915b5050505050905090565b61085b610854610cdf565b8383611155565b5050565b61087061086a610cdf565b83610d9c565b6108af576040517f08c379a00000000000000000000000000000000000000000000000000000000081526004016108a690612318565b60405180910390fd5b6108bb848484846112bc565b50505050565b60606108cc82610c94565b5f60065f8481526020019081526020015f2080546108e99061215c565b80601f01602080910402602001604051908101604052809291908181526020018280546109159061215c565b80156109605780601f1061093757610100808354040283529160200191610960565b820191905f5260205f20905b81548152906001019060200180831161094357829003601f168201915b505050505090505f610970611318565b90505f8151036109845781925050506109c6565b5f825111156109b85780826040516020016109a0929190612466565b604051602081830303815290604052925050506109c6565b6109c18461132e565b925050505b919050565b5f5f5f60085f8581526020019081526020015f206040518060400160405290815f82015f9054906101000a900473ffffffffffffffffffffffffffffffffffffffff1673ffffffffffffffffffffffffffffffffffffffff1673ffffffffffffffffffffffffffffffffffffffff1681526020016001820154815250509050805f015181602001519250925050915091565b5f60055f8473ffffffffffffffffffffffffffffffffffffffff1673ffffffffffffffffffffffffffffffffffffffff1681526020019081526020015f205f8373ffffffffffffffffffffffffffffffffffffffff1673ffffffffffffffffffffffffffffffffffffffff1681526020019081526020015f205f9054906101000a900460ff16905092915050565b5f60075f815480929190610afe906124b6565b91905055505f6007549050610b133382611393565b610b1d81846115a6565b60405180604001604052803373ffffffffffffffffffffffffffffffffffffffff1681526020014281525060085f8381526020019081526020015f205f820151815f015f6101000a81548173ffffffffffffffffffffffffffffffffffffffff021916908373ffffffffffffffffffffffffffffffffffffffff1602179055506020820151816001015590505080915050919050565b5f7f80ac58cd000000000000000000000000000000000000000000000000000000007bffffffffffffffffffffffffffffffffffffffffffffffffffffffff1916827bffffffffffffffffffffffffffffffffffffffffffffffffffffffff19161480610c7d57507f5b5e139f000000000000000000000000000000000000000000000000000000007bffffffffffffffffffffffffffffffffffffffffffffffffffffffff1916827bffffffffffffffffffffffffffffffffffffffffffffffffffffffff1916145b80610c8d5750610c8c82611648565b5b9050919050565b610c9d816116b1565b610cdc576040517f08c379a0000000000000000000000000000000000000000000000000000000008152600401610cd390612380565b60405180910390fd5b50565b5f33905090565b8160045f8381526020019081526020015f205f6101000a81548173ffffffffffffffffffffffffffffffffffffffff021916908373ffffffffffffffffffffffffffffffffffffffff160217905550808273ffffffffffffffffffffffffffffffffffffffff16610d5683610642565b73ffffffffffffffffffffffffffffffffffffffff167f8c5be1e5ebec7d5bd14f71427d1e84f3dd0314c0f7b2291e5b200ac8c7c3b92560405160405180910390a45050565b5f5f610da783610642565b90508073ffffffffffffffffffffffffffffffffffffffff168473ffffffffffffffffffffffffffffffffffffffff161480610de95750610de88185610a5d565b5b80610e2757508373ffffffffffffffffffffffffffffffffffffffff16610e0f8461046b565b73ffffffffffffffffffffffffffffffffffffffff16145b91505092915050565b8273ffffffffffffffffffffffffffffffffffffffff16610e5082610642565b73ffffffffffffffffffffffffffffffffffffffff1614610ea6576040517f08c379a0000000000000000000000000000000000000000000000000000000008152600401610e9d9061256d565b60405180910390fd5b5f73ffffffffffffffffffffffffffffffffffffffff168273ffffffffffffffffffffffffffffffffffffffff1603610f14576040517f08c379a0000000000000000000000000000000000000000000000000000000008152600401610f0b906125fb565b60405180910390fd5b610f2183838360016116f1565b8273ffffffffffffffffffffffffffffffffffffffff16610f4182610642565b73ffffffffffffffffffffffffffffffffffffffff1614610f97576040517f08c379a0000000000000000000000000000000000000000000000000000000008152600401610f8e9061256d565b60405180910390fd5b60045f8281526020019081526020015f205f6101000a81549073ffffffffffffffffffffffffffffffffffffffff0219169055600160035f8573ffffffffffffffffffffffffffffffffffffffff1673ffffffffffffffffffffffffffffffffffffffff1681526020019081526020015f205f8282540392505081905550600160035f8473ffffffffffffffffffffffffffffffffffffffff1673ffffffffffffffffffffffffffffffffffffffff1681526020019081526020015f205f82825401925050819055508160025f8381526020019081526020015f205f6101000a81548173ffffffffffffffffffffffffffffffffffffffff021916908373ffffffffffffffffffffffffffffffffffffffff160217905550808273ffffffffffffffffffffffffffffffffffffffff168473ffffffffffffffffffffffffffffffffffffffff167fddf252ad1be2c89b69c2b068fc378daa952ba7f163c4a11628f55a4df523b3ef60405160405180910390a461111783838360016116f7565b505050565b5f60025f8381526020019081526020015f205f9054906101000a900473ffffffffffffffffffffffffffffffffffffffff169050919050565b8173ffffffffffffffffffffffffffffffffffffffff168373ffffffffffffffffffffffffffffffffffffffff16036111c3576040517f08c379a00000000000000000000000000000000000000000000000000000000081526004016111ba90612663565b60405180910390fd5b8060055f8573ffffffffffffffffffffffffffffffffffffffff1673ffffffffffffffffffffffffffffffffffffffff1681526020019081526020015f205f8473ffffffffffffffffffffffffffffffffffffffff1673ffffffffffffffffffffffffffffffffffffffff1681526020019081526020015f205f6101000a81548160ff0219169083151502179055508173ffffffffffffffffffffffffffffffffffffffff168373ffffffffffffffffffffffffffffffffffffffff167f17307eab39ab6107e8899845ad3d59bd9653f200f220920489ca2b5937696c31836040516112af9190611b67565b60405180910390a3505050565b6112c7848484610e30565b6112d3848484846116fd565b611312576040517f08c379a0000000000000000000000000000000000000000000000000000000008152600401611309906126f1565b60405180910390fd5b50505050565b606060405180602001604052805f815250905090565b606061133982610c94565b5f611342611318565b90505f8151116113605760405180602001604052805f81525061138b565b8061136a8461187f565b60405160200161137b929190612466565b6040516020818303038152906040525b915050919050565b5f73ffffffffffffffffffffffffffffffffffffffff168273ffffffffffffffffffffffffffffffffffffffff1603611401576040517f08c379a00000000000000000000000000000000000000000000000000000000081526004016113f890612759565b60405180910390fd5b61140a816116b1565b1561144a576040517f08c379a0000000000000000000000000000000000000000000000000000000008152600401611441906127c1565b60405180910390fd5b6114575f838360016116f1565b611460816116b1565b156114a0576040517f08c379a0000000000000000000000000000000000000000000000000000000008152600401611497906127c1565b60405180910390fd5b600160035f8473ffffffffffffffffffffffffffffffffffffffff1673ffffffffffffffffffffffffffffffffffffffff1681526020019081526020015f205f82825401925050819055508160025f8381526020019081526020015f205f6101000a81548173ffffffffffffffffffffffffffffffffffffffff021916908373ffffffffffffffffffffffffffffffffffffffff160217905550808273ffffffffffffffffffffffffffffffffffffffff165f73ffffffffffffffffffffffffffffffffffffffff167fddf252ad1be2c89b69c2b068fc378daa952ba7f163c4a11628f55a4df523b3ef60405160405180910390a46115a25f838360016116f7565b5050565b6115af826116b1565b6115ee576040517f08c379a00000000000000000000000000000000000000000000000000000000081526004016115e59061284f565b60405180910390fd5b8060065f8481526020019081526020015f20908161160c9190612a0d565b507ff8e1a15aba9398e019f0b49df1a4fde98ee17ae345cb5f6b5e2c27f5033e8ce78260405161163c9190611db8565b60405180910390a15050565b5f7f01ffc9a7000000000000000000000000000000000000000000000000000000007bffffffffffffffffffffffffffffffffffffffffffffffffffffffff1916827bffffffffffffffffffffffffffffffffffffffffffffffffffffffff1916149050919050565b5f5f73ffffffffffffffffffffffffffffffffffffffff166116d28361111c565b73ffffffffffffffffffffffffffffffffffffffff1614159050919050565b50505050565b50505050565b5f61171d8473ffffffffffffffffffffffffffffffffffffffff16611949565b15611872578373ffffffffffffffffffffffffffffffffffffffff1663150b7a02611746610cdf565b8786866040518563ffffffff1660e01b81526004016117689493929190612b2e565b6020604051808303815f875af19250505080156117a357506040513d601f19601f820116820180604052508101906117a09190612b8c565b60015b611822573d805f81146117d1576040519150601f19603f3d011682016040523d82523d5f602084013e6117d6565b606091505b505f81510361181a576040517f08c379a0000000000000000000000000000000000000000000000000000000008152600401611811906126f1565b60405180910390fd5b805181602001fd5b63150b7a0260e01b7bffffffffffffffffffffffffffffffffffffffffffffffffffffffff1916817bffffffffffffffffffffffffffffffffffffffffffffffffffffffff191614915050611877565b600190505b949350505050565b60605f600161188d8461196b565b0190505f8167ffffffffffffffff8111156118ab576118aa611e68565b5b6040519080825280601f01601f1916602001820160405280156118dd5781602001600182028036833780820191505090505b5090505f82602001820190505b60011561193e578080600190039150507f3031323334353637383961626364656600000000000000000000000000000000600a86061a8153600a858161193357611932612bb7565b5b0494505f85036118ea575b819350505050919050565b5f5f8273ffffffffffffffffffffffffffffffffffffffff163b119050919050565b5f5f5f90507a184f03e93ff9f4daa797ed6e38ed64bf6a1f01000000000000000083106119c7577a184f03e93ff9f4daa797ed6e38ed64bf6a1f01000000000000000083816119bd576119bc612bb7565b5b0492506040810190505b6d04ee2d6d415b85acef81000000008310611a04576d04ee2d6d415b85acef810000000083816119fa576119f9612bb7565b5b0492506020810190505b662386f26fc100008310611a3357662386f26fc100008381611a2957611a28612bb7565b5b0492506010810190505b6305f5e1008310611a5c576305f5e1008381611a5257611a51612bb7565b5b0492506008810190505b6127108310611a81576127108381611a7757611a76612bb7565b5b0492506004810190505b60648310611aa45760648381611a9a57611a99612bb7565b5b0492506002810190505b600a8310611ab3576001810190505b80915050919050565b5f604051905090565b5f5ffd5b5f5ffd5b5f7fffffffff0000000000000000000000000000000000000000000000000000000082169050919050565b611b0181611acd565b8114611b0b575f5ffd5b50565b5f81359050611b1c81611af8565b92915050565b5f60208284031215611b3757611b36611ac5565b5b5f611b4484828501611b0e565b91505092915050565b5f8115159050919050565b611b6181611b4d565b82525050565b5f602082019050611b7a5f830184611b58565b92915050565b5f81519050919050565b5f82825260208201905092915050565b8281835e5f83830152505050565b5f601f19601f8301169050919050565b5f611bc282611b80565b611bcc8185611b8a565b9350611bdc818560208601611b9a565b611be581611ba8565b840191505092915050565b5f6020820190508181035f830152611c088184611bb8565b905092915050565b5f819050919050565b611c2281611c10565b8114611c2c575f5ffd5b50565b5f81359050611c3d81611c19565b92915050565b5f60208284031215611c5857611c57611ac5565b5b5f611c6584828501611c2f565b91505092915050565b5f73ffffffffffffffffffffffffffffffffffffffff82169050919050565b5f611c9782611c6e565b9050919050565b611ca781611c8d565b82525050565b5f602082019050611cc05f830184611c9e565b92915050565b611ccf81611c8d565b8114611cd9575f5ffd5b50565b5f81359050611cea81611cc6565b92915050565b5f5f60408385031215611d0657611d05611ac5565b5b5f611d1385828601611cdc565b9250506020611d2485828601611c2f565b9150509250929050565b5f5f5f60608486031215611d4557611d44611ac5565b5b5f611d5286828701611cdc565b9350506020611d6386828701611cdc565b9250506040611d7486828701611c2f565b9150509250925092565b5f60208284031215611d9357611d92611ac5565b5b5f611da084828501611cdc565b91505092915050565b611db281611c10565b82525050565b5f602082019050611dcb5f830184611da9565b92915050565b5f604082019050611de45f830185611c9e565b611df16020830184611da9565b9392505050565b611e0181611b4d565b8114611e0b575f5ffd5b50565b5f81359050611e1c81611df8565b92915050565b5f5f60408385031215611e3857611e37611ac5565b5b5f611e4585828601611cdc565b9250506020611e5685828601611e0e565b9150509250929050565b5f5ffd5b5f5ffd5b7f4e487b71000000000000000000000000000000000000000000000000000000005f52604160045260245ffd5b611e9e82611ba8565b810181811067ffffffffffffffff82111715611ebd57611ebc611e68565b5b80604052505050565b5f611ecf611abc565b9050611edb8282611e95565b919050565b5f67ffffffffffffffff821115611efa57611ef9611e68565b5b611f0382611ba8565b9050602081019050919050565b828183375f83830152505050565b5f611f30611f2b84611ee0565b611ec6565b905082815260208101848484011115611f4c57611f4b611e64565b5b611f57848285611f10565b509392505050565b5f82601f830112611f7357611f72611e60565b5b8135611f83848260208601611f1e565b91505092915050565b5f5f5f5f60808587031215611fa457611fa3611ac5565b5b5f611fb187828801611cdc565b9450506020611fc287828801611cdc565b9350506040611fd387828801611c2f565b925050606085013567ffffffffffffffff811115611ff457611ff3611ac9565b5b61200087828801611f5f565b91505092959194509250565b5f5f6040838503121561202257612021611ac5565b5b5f61202f85828601611cdc565b925050602061204085828601611cdc565b9150509250929050565b5f67ffffffffffffffff82111561206457612063611e68565b5b61206d82611ba8565b9050602081019050919050565b5f61208c6120878461204a565b611ec6565b9050828152602081018484840111156120a8576120a7611e64565b5b6120b3848285611f10565b509392505050565b5f82601f8301126120cf576120ce611e60565b5b81356120df84826020860161207a565b91505092915050565b5f602082840312156120fd576120fc611ac5565b5b5f82013567ffffffffffffffff81111561211a57612119611ac9565b5b612126848285016120bb565b91505092915050565b7f4e487b71000000000000000000000000000000000000000000000000000000005f52602260045260245ffd5b5f600282049050600182168061217357607f821691505b6020821081036121865761218561212f565b5b50919050565b7f4552433732313a20617070726f76616c20746f2063757272656e74206f776e655f8201527f7200000000000000000000000000000000000000000000000000000000000000602082015250565b5f6121e6602183611b8a565b91506121f18261218c565b604082019050919050565b5f6020820190508181035f830152612213816121da565b9050919050565b7f4552433732313a20617070726f76652063616c6c6572206973206e6f7420746f5f8201527f6b656e206f776e6572206f7220617070726f76656420666f7220616c6c000000602082015250565b5f612274603d83611b8a565b915061227f8261221a565b604082019050919050565b5f6020820190508181035f8301526122a181612268565b9050919050565b7f4552433732313a2063616c6c6572206973206e6f7420746f6b656e206f776e655f8201527f72206f7220617070726f76656400000000000000000000000000000000000000602082015250565b5f612302602d83611b8a565b915061230d826122a8565b604082019050919050565b5f6020820190508181035f83015261232f816122f6565b9050919050565b7f4552433732313a20696e76616c696420746f6b656e20494400000000000000005f82015250565b5f61236a601883611b8a565b915061237582612336565b602082019050919050565b5f6020820190508181035f8301526123978161235e565b9050919050565b7f4552433732313a2061646472657373207a65726f206973206e6f7420612076615f8201527f6c6964206f776e65720000000000000000000000000000000000000000000000602082015250565b5f6123f8602983611b8a565b91506124038261239e565b604082019050919050565b5f6020820190508181035f830152612425816123ec565b9050919050565b5f81905092915050565b5f61244082611b80565b61244a818561242c565b935061245a818560208601611b9a565b80840191505092915050565b5f6124718285612436565b915061247d8284612436565b91508190509392505050565b7f4e487b71000000000000000000000000000000000000000000000000000000005f52601160045260245ffd5b5f6124c082611c10565b91507fffffffffffffffffffffffffffffffffffffffffffffffffffffffffffffffff82036124f2576124f1612489565b5b600182019050919050565b7f4552433732313a207472616e736665722066726f6d20696e636f7272656374205f8201527f6f776e6572000000000000000000000000000000000000000000000000000000602082015250565b5f612557602583611b8a565b9150612562826124fd565b604082019050919050565b5f6020820190508181035f8301526125848161254b565b9050919050565b7f4552433732313a207472616e7366657220746f20746865207a65726f206164645f8201527f7265737300000000000000000000000000000000000000000000000000000000602082015250565b5f6125e5602483611b8a565b91506125f08261258b565b604082019050919050565b5f6020820190508181035f830152612612816125d9565b9050919050565b7f4552433732313a20617070726f766520746f2063616c6c6572000000000000005f82015250565b5f61264d601983611b8a565b915061265882612619565b602082019050919050565b5f6020820190508181035f83015261267a81612641565b9050919050565b7f4552433732313a207472616e7366657220746f206e6f6e2045524337323152655f8201527f63656976657220696d706c656d656e7465720000000000000000000000000000602082015250565b5f6126db603283611b8a565b91506126e682612681565b604082019050919050565b5f6020820190508181035f830152612708816126cf565b9050919050565b7f4552433732313a206d696e7420746f20746865207a65726f20616464726573735f82015250565b5f612743602083611b8a565b915061274e8261270f565b602082019050919050565b5f6020820190508181035f83015261277081612737565b9050919050565b7f4552433732313a20746f6b656e20616c7265616479206d696e746564000000005f82015250565b5f6127ab601c83611b8a565b91506127b682612777565b602082019050919050565b5f6020820190508181035f8301526127d88161279f565b9050919050565b7f45524337323155524953746f726167653a2055524920736574206f66206e6f6e5f8201527f6578697374656e7420746f6b656e000000000000000000000000000000000000602082015250565b5f612839602e83611b8a565b9150612844826127df565b604082019050919050565b5f6020820190508181035f8301526128668161282d565b9050919050565b5f819050815f5260205f209050919050565b5f6020601f8301049050919050565b5f82821b905092915050565b5f600883026128c97fffffffffffffffffffffffffffffffffffffffffffffffffffffffffffffffff8261288e565b6128d3868361288e565b95508019841693508086168417925050509392505050565b5f819050919050565b5f61290e61290961290484611c10565b6128eb565b611c10565b9050919050565b5f819050919050565b612927836128f4565b61293b61293382612915565b84845461289a565b825550505050565b5f5f905090565b612952612943565b61295d81848461291e565b505050565b5b81811015612980576129755f8261294a565b600181019050612963565b5050565b601f8211156129c5576129968161286d565b61299f8461287f565b810160208510156129ae578190505b6129c26129ba8561287f565b830182612962565b50505b505050565b5f82821c905092915050565b5f6129e55f19846008026129ca565b1980831691505092915050565b5f6129fd83836129d6565b9150826002028217905092915050565b612a1682611b80565b67ffffffffffffffff811115612a2f57612a2e611e68565b5b612a39825461215c565b612a44828285612984565b5f60209050601f831160018114612a75575f8415612a63578287015190505b612a6d85826129f2565b865550612ad4565b601f198416612a838661286d565b5f5b82811015612aaa57848901518255600182019150602085019450602081019050612a85565b86831015612ac75784890151612ac3601f8916826129d6565b8355505b6001600288020188555050505b505050505050565b5f81519050919050565b5f82825260208201905092915050565b5f612b0082612adc565b612b0a8185612ae6565b9350612b1a818560208601611b9a565b612b2381611ba8565b840191505092915050565b5f608082019050612b415f830187611c9e565b612b4e6020830186611c9e565b612b5b6040830185611da9565b8181036060830152612b6d8184612af6565b905095945050505050565b5f81519050612b8681611af8565b92915050565b5f60208284031215612ba157612ba0611ac5565b5b5f612bae84828501612b78565b91505092915050565b7f4e487b71000000000000000000000000000000000000000000000000000000005f52601260045260245ffdfea2646970667358221220b27c7f68d6a5b797dd3c85441670919b4b5a1d1653dbca4d6318853948912eee64736f6c634300081d0033",
  "immutableReferences": {},
  "source": "// SPDX-License-Identifier: MIT\r\npragma solidity ^0.8.1;\r\n\r\nimport \"@openzeppelin/contracts/token/ERC721/extensions/ERC721URIStorage.sol\";\r\n\r\ncontract NftMint is ERC721URIStorage {\r\n    uint256 private _tokenIds;\r\n\r\n    struct NFTInfo {\r\n        address creator;\r\n        uint256 timestamp;\r\n    }\r\n\r\n    mapping(uint256 => NFTInfo) public nftDetails;\r\n\r\n    constructor() ERC721(\"DeMaNFT\", \"DMT\") {}\r\n\r\n    function mintNFT(string memory tokenURI) public returns (uint256) {\r\n        _tokenIds++;\r\n        uint256 newItemId = _tokenIds;\r\n\r\n        _mint(msg.sender, newItemId);\r\n        _setTokenURI(newItemId, tokenURI);\r\n\r\n        nftDetails[newItemId] = NFTInfo({\r\n            creator: msg.sender,\r\n            timestamp: block.timestamp\r\n        });\r\n\r\n        return newItemId;\r\n    }\r\n\r\n    function getNFTInfo(uint256 tokenId) public view returns (address creator, uint256 timestamp) {\r\n        NFTInfo memory info = nftDetails[tokenId];\r\n        return (info.creator, info.timestamp);\r\n    }\r\n}\r\n",
  "sourcePath": "C:\\Users\\dives\\OneDrive\\Documents\\DeMa\\contracts\\NftMint.sol",
  "compiler": {
    "name": "solc",
    "version": "0.8.29+commit.ab55807c.Emscripten.clang"
  },
  "schemaVersion": "3.4.16",
  "updatedAt": "2025-04-06T19:36:34.935Z",
  "networkType": "ethereum",
  "devdoc": {
    "events": {
      "Approval(address,address,uint256)": {
        "details": "Emitted when `owner` enables `approved` to manage the `tokenId` token."
      },
      "ApprovalForAll(address,address,bool)": {
        "details": "Emitted when `owner` enables or disables (`approved`) `operator` to manage all of its assets."
      },
      "BatchMetadataUpdate(uint256,uint256)": {
        "details": "This event emits when the metadata of a range of tokens is changed. So that the third-party platforms such as NFT market could timely update the images and related attributes of the NFTs."
      },
      "MetadataUpdate(uint256)": {
        "details": "This event emits when the metadata of a token is changed. So that the third-party platforms such as NFT market could timely update the images and related attributes of the NFT."
      },
      "Transfer(address,address,uint256)": {
        "details": "Emitted when `tokenId` token is transferred from `from` to `to`."
      }
    },
    "kind": "dev",
    "methods": {
      "approve(address,uint256)": {
        "details": "See {IERC721-approve}."
      },
      "balanceOf(address)": {
        "details": "See {IERC721-balanceOf}."
      },
      "getApproved(uint256)": {
        "details": "See {IERC721-getApproved}."
      },
      "isApprovedForAll(address,address)": {
        "details": "See {IERC721-isApprovedForAll}."
      },
      "name()": {
        "details": "See {IERC721Metadata-name}."
      },
      "ownerOf(uint256)": {
        "details": "See {IERC721-ownerOf}."
      },
      "safeTransferFrom(address,address,uint256)": {
        "details": "See {IERC721-safeTransferFrom}."
      },
      "safeTransferFrom(address,address,uint256,bytes)": {
        "details": "See {IERC721-safeTransferFrom}."
      },
      "setApprovalForAll(address,bool)": {
        "details": "See {IERC721-setApprovalForAll}."
      },
      "supportsInterface(bytes4)": {
        "details": "See {IERC165-supportsInterface}"
      },
      "symbol()": {
        "details": "See {IERC721Metadata-symbol}."
      },
      "tokenURI(uint256)": {
        "details": "See {IERC721Metadata-tokenURI}."
      },
      "transferFrom(address,address,uint256)": {
        "details": "See {IERC721-transferFrom}."
      }
    },
    "version": 1
  },
  "userdoc": {
    "kind": "user",
    "methods": {},
    "version": 1
  }
}