{
  "contractName": "NftMarketplace",
  "abi": [
    {
      "inputs": [],
      "stateMutability": "nonpayable",
      "type": "constructor"
    },
    {
      "anonymous": false,
      "inputs": [
        {
          "indexed": false,
          "internalType": "address",
          "name": "newRecipient",
          "type": "address"
        }
      ],
      "name": "FeeRecipientUpdated",
      "type": "event"
    },
    {
      "anonymous": false,
      "inputs": [
        {
          "indexed": true,
          "internalType": "address",
          "name": "nft",
          "type": "address"
        },
        {
          "indexed": true,
          "internalType": "uint256",
          "name": "tokenId",
          "type": "uint256"
        },
        {
          "indexed": true,
          "internalType": "address",
          "name": "seller",
          "type": "address"
        },
        {
          "indexed": false,
          "internalType": "uint256",
          "name": "newPrice",
          "type": "uint256"
        },
        {
          "indexed": false,
          "internalType": "bool",
          "name": "isPhysical",
          "type": "bool"
        }
      ],
      "name": "ListingUpdated",
      "type": "event"
    },
    {
      "anonymous": false,
      "inputs": [
        {
          "indexed": false,
          "internalType": "uint256",
          "name": "newFeePercent",
          "type": "uint256"
        }
      ],
      "name": "MarketplaceFeeUpdated",
      "type": "event"
    },
    {
      "anonymous": false,
      "inputs": [
        {
          "indexed": true,
          "internalType": "address",
          "name": "nft",
          "type": "address"
        },
        {
          "indexed": true,
          "internalType": "uint256",
          "name": "tokenId",
          "type": "uint256"
        },
        {
          "indexed": true,
          "internalType": "address",
          "name": "seller",
          "type": "address"
        },
        {
          "indexed": false,
          "internalType": "uint256",
          "name": "price",
          "type": "uint256"
        },
        {
          "indexed": false,
          "internalType": "bool",
          "name": "isPhysical",
          "type": "bool"
        }
      ],
      "name": "NFTListed",
      "type": "event"
    },
    {
      "anonymous": false,
      "inputs": [
        {
          "indexed": true,
          "internalType": "address",
          "name": "nft",
          "type": "address"
        },
        {
          "indexed": true,
          "internalType": "uint256",
          "name": "tokenId",
          "type": "uint256"
        },
        {
          "indexed": true,
          "internalType": "address",
          "name": "seller",
          "type": "address"
        }
      ],
      "name": "NFTListingCancelled",
      "type": "event"
    },
    {
      "anonymous": false,
      "inputs": [
        {
          "indexed": true,
          "internalType": "address",
          "name": "nft",
          "type": "address"
        },
        {
          "indexed": true,
          "internalType": "uint256",
          "name": "tokenId",
          "type": "uint256"
        },
        {
          "indexed": true,
          "internalType": "address",
          "name": "buyer",
          "type": "address"
        },
        {
          "indexed": false,
          "internalType": "uint256",
          "name": "price",
          "type": "uint256"
        }
      ],
      "name": "NFTSold",
      "type": "event"
    },
    {
      "inputs": [],
      "name": "feeRecipient",
      "outputs": [
        {
          "internalType": "address",
          "name": "",
          "type": "address"
        }
      ],
      "stateMutability": "view",
      "type": "function",
      "constant": true
    },
    {
      "inputs": [
        {
          "internalType": "address",
          "name": "",
          "type": "address"
        },
        {
          "internalType": "uint256",
          "name": "",
          "type": "uint256"
        }
      ],
      "name": "listings",
      "outputs": [
        {
          "internalType": "address",
          "name": "seller",
          "type": "address"
        },
        {
          "internalType": "uint256",
          "name": "price",
          "type": "uint256"
        },
        {
          "internalType": "bool",
          "name": "isPhysical",
          "type": "bool"
        }
      ],
      "stateMutability": "view",
      "type": "function",
      "constant": true
    },
    {
      "inputs": [],
      "name": "marketplaceFeePercent",
      "outputs": [
        {
          "internalType": "uint256",
          "name": "",
          "type": "uint256"
        }
      ],
      "stateMutability": "view",
      "type": "function",
      "constant": true
    },
    {
      "inputs": [],
      "name": "nftTracker",
      "outputs": [
        {
          "internalType": "contract INftTracking",
          "name": "",
          "type": "address"
        }
      ],
      "stateMutability": "view",
      "type": "function",
      "constant": true
    },
    {
      "inputs": [],
      "name": "owner",
      "outputs": [
        {
          "internalType": "address",
          "name": "",
          "type": "address"
        }
      ],
      "stateMutability": "view",
      "type": "function",
      "constant": true
    },
    {
      "stateMutability": "payable",
      "type": "receive",
      "payable": true
    },
    {
      "inputs": [
        {
          "internalType": "address",
          "name": "_nftTracker",
          "type": "address"
        }
      ],
      "name": "setNftTrackerAddress",
      "outputs": [],
      "stateMutability": "nonpayable",
      "type": "function"
    },
    {
      "inputs": [
        {
          "internalType": "uint256",
          "name": "newFeePercent",
          "type": "uint256"
        }
      ],
      "name": "setMarketplaceFeePercent",
      "outputs": [],
      "stateMutability": "nonpayable",
      "type": "function"
    },
    {
      "inputs": [
        {
          "internalType": "address",
          "name": "newRecipient",
          "type": "address"
        }
      ],
      "name": "setFeeRecipient",
      "outputs": [],
      "stateMutability": "nonpayable",
      "type": "function"
    },
    {
      "inputs": [
        {
          "internalType": "address",
          "name": "nft",
          "type": "address"
        },
        {
          "internalType": "uint256",
          "name": "tokenId",
          "type": "uint256"
        },
        {
          "internalType": "uint256",
          "name": "price",
          "type": "uint256"
        },
        {
          "internalType": "bool",
          "name": "isPhysical",
          "type": "bool"
        }
      ],
      "name": "listNFT",
      "outputs": [],
      "stateMutability": "payable",
      "type": "function",
      "payable": true
    },
    {
      "inputs": [
        {
          "internalType": "address",
          "name": "nft",
          "type": "address"
        },
        {
          "internalType": "uint256",
          "name": "tokenId",
          "type": "uint256"
        }
      ],
      "name": "buyNFT",
      "outputs": [],
      "stateMutability": "payable",
      "type": "function",
      "payable": true
    },
    {
      "inputs": [
        {
          "internalType": "address",
          "name": "nft",
          "type": "address"
        },
        {
          "internalType": "uint256",
          "name": "tokenId",
          "type": "uint256"
        }
      ],
      "name": "cancelListing",
      "outputs": [],
      "stateMutability": "nonpayable",
      "type": "function"
    },
    {
      "inputs": [
        {
          "internalType": "address",
          "name": "nft",
          "type": "address"
        },
        {
          "internalType": "uint256",
          "name": "tokenId",
          "type": "uint256"
        },
        {
          "internalType": "uint256",
          "name": "newPrice",
          "type": "uint256"
        },
        {
          "internalType": "bool",
          "name": "isPhysical",
          "type": "bool"
        }
      ],
      "name": "updateListing",
      "outputs": [],
      "stateMutability": "payable",
      "type": "function",
      "payable": true
    }
  ],
  "bytecode": "0x608060405260fa6003553480156013575f5ffd5b5060015f819055503360045f6101000a81548173ffffffffffffffffffffffffffffffffffffffff021916908373ffffffffffffffffffffffffffffffffffffffff1602179055503360055f6101000a81548173ffffffffffffffffffffffffffffffffffffffff021916908373ffffffffffffffffffffffffffffffffffffffff1602179055506123b4806100a85f395ff3fe6080604052600436106100a9575f3560e01c8063a912445111610063578063a9124451146101ef578063b0b66e7914610217578063b2ddee0614610233578063be2df1b81461025b578063e74b981b14610277578063e946fb831461029f576100e9565b806207df30146100ed57806338d73b0d1461012b578063469048401461015557806352dac6561461017f5780638da5cb5b146101a9578063a82ba76f146101d3576100e9565b366100e9576040517f08c379a00000000000000000000000000000000000000000000000000000000081526004016100e0906118cb565b60405180910390fd5b5f5ffd5b3480156100f8575f5ffd5b50610113600480360381019061010e919061197a565b6102c7565b604051610122939291906119f0565b60405180910390f35b348015610136575f5ffd5b5061013f610323565b60405161014c9190611a25565b60405180910390f35b348015610160575f5ffd5b50610169610329565b6040516101769190611a3e565b60405180910390f35b34801561018a575f5ffd5b5061019361034e565b6040516101a09190611ab2565b60405180910390f35b3480156101b4575f5ffd5b506101bd610373565b6040516101ca9190611a3e565b60405180910390f35b6101ed60048036038101906101e8919061197a565b610398565b005b3480156101fa575f5ffd5b5061021560048036038101906102109190611acb565b610862565b005b610231600480360381019061022c9190611b20565b610977565b005b34801561023e575f5ffd5b506102596004803603810190610254919061197a565b610f13565b005b61027560048036038101906102709190611b20565b6111fe565b005b348015610282575f5ffd5b5061029d60048036038101906102989190611b84565b611564565b005b3480156102aa575f5ffd5b506102c560048036038101906102c09190611b84565b6116db565b005b6002602052815f5260405f20602052805f5260405f205f9150915050805f015f9054906101000a900473ffffffffffffffffffffffffffffffffffffffff1690806001015490806002015f9054906101000a900460ff16905083565b60035481565b60045f9054906101000a900473ffffffffffffffffffffffffffffffffffffffff1681565b60015f9054906101000a900473ffffffffffffffffffffffffffffffffffffffff1681565b60055f9054906101000a900473ffffffffffffffffffffffffffffffffffffffff1681565b6103a061181b565b5f60025f8473ffffffffffffffffffffffffffffffffffffffff1673ffffffffffffffffffffffffffffffffffffffff1681526020019081526020015f205f8381526020019081526020015f206040518060600160405290815f82015f9054906101000a900473ffffffffffffffffffffffffffffffffffffffff1673ffffffffffffffffffffffffffffffffffffffff1673ffffffffffffffffffffffffffffffffffffffff16815260200160018201548152602001600282015f9054906101000a900460ff16151515158152505090505f8160200151116104b8576040517f08c379a00000000000000000000000000000000000000000000000000000000081526004016104af90611bf9565b60405180910390fd5b806020015134146104fe576040517f08c379a00000000000000000000000000000000000000000000000000000000081526004016104f590611c61565b60405180910390fd5b60025f8473ffffffffffffffffffffffffffffffffffffffff1673ffffffffffffffffffffffffffffffffffffffff1681526020019081526020015f205f8381526020019081526020015f205f5f82015f6101000a81549073ffffffffffffffffffffffffffffffffffffffff0219169055600182015f9055600282015f6101000a81549060ff021916905550505f6127106003543461059e9190611cac565b6105a89190611d1a565b90505f81346105b79190611d4a565b90508260400151156106cf575f612710612616346105d59190611cac565b6105df9190611d1a565b90505f61271060fa346105f29190611cac565b6105fc9190611d1a565b905060015f9054906101000a900473ffffffffffffffffffffffffffffffffffffffff1673ffffffffffffffffffffffffffffffffffffffff166108fc8390811502906040515f60405180830381858888f19350505050158015610662573d5f5f3e3d5ffd5b5060045f9054906101000a900473ffffffffffffffffffffffffffffffffffffffff1673ffffffffffffffffffffffffffffffffffffffff166108fc8290811502906040515f60405180830381858888f193505050501580156106c7573d5f5f3e3d5ffd5b50505061077c565b825f015173ffffffffffffffffffffffffffffffffffffffff166108fc8290811502906040515f60405180830381858888f19350505050158015610715573d5f5f3e3d5ffd5b5060045f9054906101000a900473ffffffffffffffffffffffffffffffffffffffff1673ffffffffffffffffffffffffffffffffffffffff166108fc8390811502906040515f60405180830381858888f1935050505015801561077a573d5f5f3e3d5ffd5b505b8473ffffffffffffffffffffffffffffffffffffffff166342842e0e845f015133876040518463ffffffff1660e01b81526004016107bc93929190611d7d565b5f604051808303815f87803b1580156107d3575f5ffd5b505af11580156107e5573d5f5f3e3d5ffd5b505050503373ffffffffffffffffffffffffffffffffffffffff16848673ffffffffffffffffffffffffffffffffffffffff167f5f56b86d7e7069e97b2fb6f4bbfe88ee51f79e56760d02a0ba2114eb274600f6866020015160405161084b9190611a25565b60405180910390a450505061085e611868565b5050565b60055f9054906101000a900473ffffffffffffffffffffffffffffffffffffffff1673ffffffffffffffffffffffffffffffffffffffff163373ffffffffffffffffffffffffffffffffffffffff16146108f1576040517f08c379a00000000000000000000000000000000000000000000000000000000081526004016108e890611dfc565b60405180910390fd5b6103e8811115610936576040517f08c379a000000000000000000000000000000000000000000000000000000000815260040161092d90611e64565b60405180910390fd5b806003819055507fe18aa129833f655a8166b6185277fee7a53f67e46fd32329bc2fc2ac21274d558160405161096c9190611a25565b60405180910390a150565b5f82116109b9576040517f08c379a00000000000000000000000000000000000000000000000000000000081526004016109b090611ecc565b60405180910390fd5b5f8490503373ffffffffffffffffffffffffffffffffffffffff168173ffffffffffffffffffffffffffffffffffffffff16636352211e866040518263ffffffff1660e01b8152600401610a0d9190611a25565b602060405180830381865afa158015610a28573d5f5f3e3d5ffd5b505050506040513d601f19601f82011682018060405250810190610a4c9190611efe565b73ffffffffffffffffffffffffffffffffffffffff1614610aa2576040517f08c379a0000000000000000000000000000000000000000000000000000000008152600401610a9990611f73565b60405180910390fd5b3073ffffffffffffffffffffffffffffffffffffffff168173ffffffffffffffffffffffffffffffffffffffff1663081812fc866040518263ffffffff1660e01b8152600401610af29190611a25565b602060405180830381865afa158015610b0d573d5f5f3e3d5ffd5b505050506040513d601f19601f82011682018060405250810190610b319190611efe565b73ffffffffffffffffffffffffffffffffffffffff1614610b87576040517f08c379a0000000000000000000000000000000000000000000000000000000008152600401610b7e90611fdb565b60405180910390fd5b60015f9054906101000a900473ffffffffffffffffffffffffffffffffffffffff1673ffffffffffffffffffffffffffffffffffffffff16631646e56886866040518363ffffffff1660e01b8152600401610be3929190611ff9565b602060405180830381865afa925050508015610c1d57506040513d601f19601f82011682018060405250810190610c1a9190612043565b60015b15610ce85760036005811115610c3657610c3561206e565b5b816005811115610c4957610c4861206e565b5b1480610c79575060046005811115610c6457610c6361206e565b5b816005811115610c7757610c7661206e565b5b145b80610ca75750600580811115610c9257610c9161206e565b5b816005811115610ca557610ca461206e565b5b145b610ce6576040517f08c379a0000000000000000000000000000000000000000000000000000000008152600401610cdd9061210b565b60405180910390fd5b505b60405180606001604052803373ffffffffffffffffffffffffffffffffffffffff16815260200184815260200183151581525060025f8773ffffffffffffffffffffffffffffffffffffffff1673ffffffffffffffffffffffffffffffffffffffff1681526020019081526020015f205f8681526020019081526020015f205f820151815f015f6101000a81548173ffffffffffffffffffffffffffffffffffffffff021916908373ffffffffffffffffffffffffffffffffffffffff160217905550602082015181600101556040820151816002015f6101000a81548160ff0219169083151502179055509050503373ffffffffffffffffffffffffffffffffffffffff16848673ffffffffffffffffffffffffffffffffffffffff167fce8837ba800c105dca3f8104278639a77d17a5c03926791c3da0952f50f25f678686604051610e37929190612129565b60405180910390a48115610f0c575f61271060035485610e579190611cac565b610e619190611d1a565b9050803414610ea5576040517f08c379a0000000000000000000000000000000000000000000000000000000008152600401610e9c906121c0565b60405180910390fd5b60015f9054906101000a900473ffffffffffffffffffffffffffffffffffffffff1673ffffffffffffffffffffffffffffffffffffffff166108fc8290811502906040515f60405180830381858888f19350505050158015610f09573d5f5f3e3d5ffd5b50505b5050505050565b5f60025f8473ffffffffffffffffffffffffffffffffffffffff1673ffffffffffffffffffffffffffffffffffffffff1681526020019081526020015f205f8381526020019081526020015f206040518060600160405290815f82015f9054906101000a900473ffffffffffffffffffffffffffffffffffffffff1673ffffffffffffffffffffffffffffffffffffffff1673ffffffffffffffffffffffffffffffffffffffff16815260200160018201548152602001600282015f9054906101000a900460ff16151515158152505090503373ffffffffffffffffffffffffffffffffffffffff16815f015173ffffffffffffffffffffffffffffffffffffffff1614611056576040517f08c379a000000000000000000000000000000000000000000000000000000000815260040161104d90612228565b60405180910390fd5b60025f8473ffffffffffffffffffffffffffffffffffffffff1673ffffffffffffffffffffffffffffffffffffffff1681526020019081526020015f205f8381526020019081526020015f205f5f82015f6101000a81549073ffffffffffffffffffffffffffffffffffffffff0219169055600182015f9055600282015f6101000a81549060ff021916905550503373ffffffffffffffffffffffffffffffffffffffff16828473ffffffffffffffffffffffffffffffffffffffff167f83614a26fd4398c876bd6684c0d04cf2e84ee7e4bc24e8d8888ab0e724bac03260405160405180910390a48060400151156111f9575f612710600354836020015161115f9190611cac565b6111699190611d1a565b905060015f9054906101000a900473ffffffffffffffffffffffffffffffffffffffff1673ffffffffffffffffffffffffffffffffffffffff16639c88f8d5835f0151836040518363ffffffff1660e01b81526004016111ca929190611ff9565b5f604051808303815f87803b1580156111e1575f5ffd5b505af11580156111f3573d5f5f3e3d5ffd5b50505050505b505050565b5f60025f8673ffffffffffffffffffffffffffffffffffffffff1673ffffffffffffffffffffffffffffffffffffffff1681526020019081526020015f205f8581526020019081526020015f2090503373ffffffffffffffffffffffffffffffffffffffff16815f015f9054906101000a900473ffffffffffffffffffffffffffffffffffffffff1673ffffffffffffffffffffffffffffffffffffffff16146112dd576040517f08c379a00000000000000000000000000000000000000000000000000000000081526004016112d490612290565b60405180910390fd5b5f831161131f576040517f08c379a000000000000000000000000000000000000000000000000000000000815260040161131690611ecc565b60405180910390fd5b806002015f9054906101000a900460ff1615611404575f612710600354836001015461134b9190611cac565b6113559190611d1a565b905060015f9054906101000a900473ffffffffffffffffffffffffffffffffffffffff1673ffffffffffffffffffffffffffffffffffffffff16639c88f8d5835f015f9054906101000a900473ffffffffffffffffffffffffffffffffffffffff16836040518363ffffffff1660e01b81526004016113d5929190611ff9565b5f604051808303815f87803b1580156113ec575f5ffd5b505af11580156113fe573d5f5f3e3d5ffd5b50505050505b82816001018190555081816002015f6101000a81548160ff02191690831515021790555081156114f5575f612710600354856114409190611cac565b61144a9190611d1a565b905080341461148e576040517f08c379a0000000000000000000000000000000000000000000000000000000008152600401611485906121c0565b60405180910390fd5b60015f9054906101000a900473ffffffffffffffffffffffffffffffffffffffff1673ffffffffffffffffffffffffffffffffffffffff166108fc8290811502906040515f60405180830381858888f193505050501580156114f2573d5f5f3e3d5ffd5b50505b3373ffffffffffffffffffffffffffffffffffffffff16848673ffffffffffffffffffffffffffffffffffffffff167feb5606903020930ee142059679ca33ac38de2b4046ac97a4eb76e831317ba0d98686604051611555929190612129565b60405180910390a45050505050565b60055f9054906101000a900473ffffffffffffffffffffffffffffffffffffffff1673ffffffffffffffffffffffffffffffffffffffff163373ffffffffffffffffffffffffffffffffffffffff16146115f3576040517f08c379a00000000000000000000000000000000000000000000000000000000081526004016115ea90611dfc565b60405180910390fd5b5f73ffffffffffffffffffffffffffffffffffffffff168173ffffffffffffffffffffffffffffffffffffffff1603611661576040517f08c379a0000000000000000000000000000000000000000000000000000000008152600401611658906122f8565b60405180910390fd5b8060045f6101000a81548173ffffffffffffffffffffffffffffffffffffffff021916908373ffffffffffffffffffffffffffffffffffffffff1602179055507f7a7b5a0a132f9e0581eb8527f66eae9ee89c2a3e79d4ac7e41a1f1f4d48a7fc2816040516116d09190611a3e565b60405180910390a150565b60055f9054906101000a900473ffffffffffffffffffffffffffffffffffffffff1673ffffffffffffffffffffffffffffffffffffffff163373ffffffffffffffffffffffffffffffffffffffff161461176a576040517f08c379a000000000000000000000000000000000000000000000000000000000815260040161176190611dfc565b60405180910390fd5b5f73ffffffffffffffffffffffffffffffffffffffff168173ffffffffffffffffffffffffffffffffffffffff16036117d8576040517f08c379a00000000000000000000000000000000000000000000000000000000081526004016117cf906122f8565b60405180910390fd5b8060015f6101000a81548173ffffffffffffffffffffffffffffffffffffffff021916908373ffffffffffffffffffffffffffffffffffffffff16021790555050565b60025f540361185f576040517f08c379a000000000000000000000000000000000000000000000000000000000815260040161185690612360565b60405180910390fd5b60025f81905550565b60015f81905550565b5f82825260208201905092915050565b7f446972656374207472616e7366657273206e6f7420616c6c6f776564000000005f82015250565b5f6118b5601c83611871565b91506118c082611881565b602082019050919050565b5f6020820190508181035f8301526118e2816118a9565b9050919050565b5f5ffd5b5f73ffffffffffffffffffffffffffffffffffffffff82169050919050565b5f611916826118ed565b9050919050565b6119268161190c565b8114611930575f5ffd5b50565b5f813590506119418161191d565b92915050565b5f819050919050565b61195981611947565b8114611963575f5ffd5b50565b5f8135905061197481611950565b92915050565b5f5f604083850312156119905761198f6118e9565b5b5f61199d85828601611933565b92505060206119ae85828601611966565b9150509250929050565b6119c18161190c565b82525050565b6119d081611947565b82525050565b5f8115159050919050565b6119ea816119d6565b82525050565b5f606082019050611a035f8301866119b8565b611a1060208301856119c7565b611a1d60408301846119e1565b949350505050565b5f602082019050611a385f8301846119c7565b92915050565b5f602082019050611a515f8301846119b8565b92915050565b5f819050919050565b5f611a7a611a75611a70846118ed565b611a57565b6118ed565b9050919050565b5f611a8b82611a60565b9050919050565b5f611a9c82611a81565b9050919050565b611aac81611a92565b82525050565b5f602082019050611ac55f830184611aa3565b92915050565b5f60208284031215611ae057611adf6118e9565b5b5f611aed84828501611966565b91505092915050565b611aff816119d6565b8114611b09575f5ffd5b50565b5f81359050611b1a81611af6565b92915050565b5f5f5f5f60808587031215611b3857611b376118e9565b5b5f611b4587828801611933565b9450506020611b5687828801611966565b9350506040611b6787828801611966565b9250506060611b7887828801611b0c565b91505092959194509250565b5f60208284031215611b9957611b986118e9565b5b5f611ba684828501611933565b91505092915050565b7f4e4654206e6f74206c69737465640000000000000000000000000000000000005f82015250565b5f611be3600e83611871565b9150611bee82611baf565b602082019050919050565b5f6020820190508181035f830152611c1081611bd7565b9050919050565b7f496e636f72726563742045544820616d6f756e740000000000000000000000005f82015250565b5f611c4b601483611871565b9150611c5682611c17565b602082019050919050565b5f6020820190508181035f830152611c7881611c3f565b9050919050565b7f4e487b71000000000000000000000000000000000000000000000000000000005f52601160045260245ffd5b5f611cb682611947565b9150611cc183611947565b9250828202611ccf81611947565b91508282048414831517611ce657611ce5611c7f565b5b5092915050565b7f4e487b71000000000000000000000000000000000000000000000000000000005f52601260045260245ffd5b5f611d2482611947565b9150611d2f83611947565b925082611d3f57611d3e611ced565b5b828204905092915050565b5f611d5482611947565b9150611d5f83611947565b9250828203905081811115611d7757611d76611c7f565b5b92915050565b5f606082019050611d905f8301866119b8565b611d9d60208301856119b8565b611daa60408301846119c7565b949350505050565b7f4f6e6c79206f776e65722063616e2063616c6c207468697300000000000000005f82015250565b5f611de6601883611871565b9150611df182611db2565b602082019050919050565b5f6020820190508181035f830152611e1381611dda565b9050919050565b7f46656520746f6f206869676820286d61782031302529000000000000000000005f82015250565b5f611e4e601683611871565b9150611e5982611e1a565b602082019050919050565b5f6020820190508181035f830152611e7b81611e42565b9050919050565b7f5072696365206d7573742062652067726561746572207468616e207a65726f005f82015250565b5f611eb6601f83611871565b9150611ec182611e82565b602082019050919050565b5f6020820190508181035f830152611ee381611eaa565b9050919050565b5f81519050611ef88161191d565b92915050565b5f60208284031215611f1357611f126118e9565b5b5f611f2084828501611eea565b91505092915050565b7f596f7520617265206e6f74207468652063757272656e74206f776e65720000005f82015250565b5f611f5d601d83611871565b9150611f6882611f29565b602082019050919050565b5f6020820190508181035f830152611f8a81611f51565b9050919050565b7f4d61726b6574706c616365206e6f7420617070726f76656400000000000000005f82015250565b5f611fc5601883611871565b9150611fd082611f91565b602082019050919050565b5f6020820190508181035f830152611ff281611fb9565b9050919050565b5f60408201905061200c5f8301856119b8565b61201960208301846119c7565b9392505050565b6006811061202c575f5ffd5b50565b5f8151905061203d81612020565b92915050565b5f60208284031215612058576120576118e9565b5b5f6120658482850161202f565b91505092915050565b7f4e487b71000000000000000000000000000000000000000000000000000000005f52602160045260245ffd5b7f4e465420736869706d656e74206e6f7420636f6d706c65746564206f7220636c5f8201527f6f73656400000000000000000000000000000000000000000000000000000000602082015250565b5f6120f5602483611871565b91506121008261209b565b604082019050919050565b5f6020820190508181035f830152612122816120e9565b9050919050565b5f60408201905061213c5f8301856119c7565b61214960208301846119e1565b9392505050565b7f496e636f72726563742045544820616d6f756e7420666f72206c697374696e675f8201527f2066656500000000000000000000000000000000000000000000000000000000602082015250565b5f6121aa602483611871565b91506121b582612150565b604082019050919050565b5f6020820190508181035f8301526121d78161219e565b9050919050565b7f4e6f742073656c6c6572000000000000000000000000000000000000000000005f82015250565b5f612212600a83611871565b915061221d826121de565b602082019050919050565b5f6020820190508181035f83015261223f81612206565b9050919050565b7f4e6f74207468652073656c6c65720000000000000000000000000000000000005f82015250565b5f61227a600e83611871565b915061228582612246565b602082019050919050565b5f6020820190508181035f8301526122a78161226e565b9050919050565b7f496e76616c6964206164647265737300000000000000000000000000000000005f82015250565b5f6122e2600f83611871565b91506122ed826122ae565b602082019050919050565b5f6020820190508181035f83015261230f816122d6565b9050919050565b7f5265656e7472616e637947756172643a207265656e7472616e742063616c6c005f82015250565b5f61234a601f83611871565b915061235582612316565b602082019050919050565b5f6020820190508181035f8301526123778161233e565b905091905056fea2646970667358221220365a8f8cacee2f88642c37d50f84c2c2fe4840f69eca6fecd798e2268ddaec8264736f6c634300081d0033",
  "immutableReferences": {},
  "source": "// SPDX-License-Identifier: MIT\r\npragma solidity ^0.8.1;\r\n\r\nimport \"@openzeppelin/contracts/token/ERC721/IERC721.sol\";\r\nimport \"@openzeppelin/contracts/security/ReentrancyGuard.sol\";\r\n\r\ninterface INftTracking {\r\n     enum Status { Created, InTransit, Delivered, Rejected, Cancelled, Finalized }\r\n    function getLatestShipmentStatus(address nft, uint256 tokenId) external view returns (Status);\r\n    function refundListingFeeToSeller(address seller, uint256 amount) external;\r\n}\r\n\r\ncontract NftMarketplace is ReentrancyGuard {\r\n    struct Listing {\r\n        address seller;\r\n        uint256 price;\r\n        bool isPhysical;\r\n    }\r\n    INftTracking public nftTracker;\r\n\r\n    mapping(address => mapping(uint256 => Listing)) public listings;\r\n\r\n    uint256 public marketplaceFeePercent = 250; // 2.5%\r\n    address public feeRecipient;\r\n    address public owner;\r\n\r\n    event NFTListed(address indexed nft, uint256 indexed tokenId, address indexed seller, uint256 price, bool isPhysical);\r\n    event NFTSold(address indexed nft, uint256 indexed tokenId, address indexed buyer, uint256 price);\r\n    event NFTListingCancelled(address indexed nft, uint256 indexed tokenId, address indexed seller);\r\n    event ListingUpdated(address indexed nft, uint256 indexed tokenId, address indexed seller, uint256 newPrice, bool isPhysical);\r\n    event MarketplaceFeeUpdated(uint256 newFeePercent);\r\n    event FeeRecipientUpdated(address newRecipient);\r\n\r\n    modifier onlyOwner() {\r\n        require(msg.sender == owner, \"Only owner can call this\");\r\n        _;\r\n    }\r\n\r\n        constructor() {\r\n        feeRecipient = msg.sender;\r\n        owner = msg.sender;\r\n    }\r\n\r\n    // Allow owner to set the NftTracking contract address after deployment\r\n    function setNftTrackerAddress(address _nftTracker) external onlyOwner {\r\n        require(_nftTracker != address(0), \"Invalid address\");\r\n        nftTracker = INftTracking(_nftTracker);\r\n    }\r\n\r\n\r\n\r\n    function setMarketplaceFeePercent(uint256 newFeePercent) external onlyOwner {\r\n        require(newFeePercent <= 1000, \"Fee too high (max 10%)\");\r\n        marketplaceFeePercent = newFeePercent;\r\n        emit MarketplaceFeeUpdated(newFeePercent);\r\n    }\r\n\r\n    function setFeeRecipient(address newRecipient) external onlyOwner {\r\n        require(newRecipient != address(0), \"Invalid address\");\r\n        feeRecipient = newRecipient;\r\n        emit FeeRecipientUpdated(newRecipient);\r\n    }\r\n\r\n    function listNFT(address nft, uint256 tokenId, uint256 price, bool isPhysical) external payable {\r\n        require(price > 0, \"Price must be greater than zero\");\r\n        IERC721 nftContract = IERC721(nft);\r\n        require(nftContract.ownerOf(tokenId) == msg.sender, \"You are not the current owner\");\r\n        require(nftContract.getApproved(tokenId) == address(this), \"Marketplace not approved\");\r\n\r\n        try nftTracker.getLatestShipmentStatus(nft, tokenId) returns (INftTracking.Status status) {\r\n           require(\r\n                status == INftTracking.Status.Rejected || \r\n                status == INftTracking.Status.Cancelled || \r\n                status == INftTracking.Status.Finalized, \r\n                \"NFT shipment not completed or closed\"\r\n            );\r\n\r\n        } catch {\r\n            // If there's no shipment, we assume it's a digital item and allow listing\r\n        }\r\n        \r\n\r\n        listings[nft][tokenId] = Listing(msg.sender, price, isPhysical);\r\n        emit NFTListed(nft, tokenId, msg.sender, price, isPhysical);\r\n\r\n        if (isPhysical) {\r\n        uint256 listingFee = (price * marketplaceFeePercent) / 10000;\r\n        require(msg.value == listingFee, \"Incorrect ETH amount for listing fee\"); // Ensure the correct ETH amount is sent\r\n        payable(address(nftTracker)).transfer(listingFee); // Deposit to tracking contract\r\n    }\r\n\r\n    }\r\n\r\n    function buyNFT(address nft, uint256 tokenId) external payable nonReentrant {\r\n        Listing memory listing = listings[nft][tokenId];\r\n        require(listing.price > 0, \"NFT not listed\");\r\n        require(msg.value == listing.price, \"Incorrect ETH amount\");\r\n\r\n        delete listings[nft][tokenId];\r\n\r\n        uint256 fee = (msg.value * marketplaceFeePercent) / 10000;\r\n        uint256 sellerAmount = msg.value - fee;\r\n\r\n        if (listing.isPhysical) {\r\n        uint256 trackingAmount = (msg.value * 9750) / 10000; // 97.5% for Tracking contract\r\n        uint256 feeAmount = (msg.value * 250) / 10000; // 2.5% marketplace fee\r\n\r\n        // Deposit 97.5% into Tracking contract\r\n        payable(address(nftTracker)).transfer(trackingAmount);\r\n\r\n        // Pay 2.5% to Fee recipient\r\n        payable(feeRecipient).transfer(feeAmount);\r\n\r\n    } else {\r\n        // If it's not a physical item, the process remains the same as before\r\n        payable(listing.seller).transfer(sellerAmount);\r\n        payable(feeRecipient).transfer(fee);\r\n    }\r\n\r\n        IERC721(nft).safeTransferFrom(listing.seller, msg.sender, tokenId);\r\n\r\n        emit NFTSold(nft, tokenId, msg.sender, listing.price);\r\n    }\r\n\r\n    function cancelListing(address nft, uint256 tokenId) external {\r\n        Listing memory listing = listings[nft][tokenId];\r\n        require(listing.seller == msg.sender, \"Not seller\");\r\n\r\n        delete listings[nft][tokenId];\r\n        emit NFTListingCancelled(nft, tokenId, msg.sender);\r\n        if (listing.isPhysical) {\r\n        uint256 oldFee = (listing.price * marketplaceFeePercent) / 10000;\r\n        // Call the tracking contract to refund the old fee to the seller\r\n        nftTracker.refundListingFeeToSeller(listing.seller, oldFee);\r\n    }\r\n    }\r\n\r\n    function updateListing(address nft, uint256 tokenId, uint256 newPrice, bool isPhysical) external payable {\r\n        Listing storage listing = listings[nft][tokenId];\r\n    require(listing.seller == msg.sender, \"Not the seller\");\r\n    require(newPrice > 0, \"Price must be greater than zero\");\r\n\r\n    // Refund old listing fee to seller (via nftTracker contract)\r\n    if (listing.isPhysical) {\r\n        uint256 oldFee = (listing.price * marketplaceFeePercent) / 10000;\r\n        // Call the tracking contract to refund the old fee to the seller\r\n        nftTracker.refundListingFeeToSeller(listing.seller, oldFee);\r\n    }\r\n         listing.price = newPrice;\r\n    listing.isPhysical = isPhysical;\r\n\r\n    // Deposit new listing fee for physical items\r\n    if (isPhysical) {\r\n        uint256 newFee = (newPrice * marketplaceFeePercent) / 10000;\r\n        require(msg.value == newFee, \"Incorrect ETH amount for listing fee\"); // Ensure the correct ETH amount is sent\r\n        payable(address(nftTracker)).transfer(newFee); // Deposit new fee to tracking contract\r\n    }\r\n\r\n    emit ListingUpdated(nft, tokenId, msg.sender, newPrice, isPhysical);\r\n    }\r\n\r\n    receive() external payable {\r\n        revert(\"Direct transfers not allowed\");\r\n    }\r\n}\r\n",
  "sourcePath": "C:\\Users\\dives\\OneDrive\\Documents\\DeMa\\contracts\\NftMarketplace.sol",
  "compiler": {
    "name": "solc",
    "version": "0.8.29+commit.ab55807c.Emscripten.clang"
  },
  "schemaVersion": "3.4.16",
  "updatedAt": "2025-04-17T08:39:36.028Z",
  "networkType": "ethereum",
  "devdoc": {
    "kind": "dev",
    "methods": {},
    "version": 1
  },
  "userdoc": {
    "kind": "user",
    "methods": {},
    "version": 1
  }
}