{
  "contractName": "NftTracking",
  "abi": [
    {
      "inputs": [
        {
          "internalType": "address",
          "name": "_marketplaceContract",
          "type": "address"
        }
      ],
      "stateMutability": "nonpayable",
      "type": "constructor"
    },
    {
      "anonymous": false,
      "inputs": [
        {
          "indexed": false,
          "internalType": "uint256",
          "name": "newSeconds",
          "type": "uint256"
        }
      ],
      "name": "DeliveryDeadlineUpdated",
      "type": "event"
    },
    {
      "anonymous": false,
      "inputs": [
        {
          "indexed": false,
          "internalType": "uint256",
          "name": "newMax",
          "type": "uint256"
        }
      ],
      "name": "MaxEntriesUpdated",
      "type": "event"
    },
    {
      "anonymous": false,
      "inputs": [
        {
          "indexed": false,
          "internalType": "uint256",
          "name": "newPercentage",
          "type": "uint256"
        }
      ],
      "name": "RefundPercentageUpdated",
      "type": "event"
    },
    {
      "anonymous": false,
      "inputs": [
        {
          "indexed": false,
          "internalType": "uint256",
          "name": "newSeconds",
          "type": "uint256"
        }
      ],
      "name": "RejectionDeadlineUpdated",
      "type": "event"
    },
    {
      "anonymous": false,
      "inputs": [
        {
          "indexed": true,
          "internalType": "uint256",
          "name": "shipmentId",
          "type": "uint256"
        },
        {
          "indexed": true,
          "internalType": "address",
          "name": "sender",
          "type": "address"
        },
        {
          "indexed": false,
          "internalType": "uint256",
          "name": "refundedAmount",
          "type": "uint256"
        },
        {
          "indexed": false,
          "internalType": "uint256",
          "name": "timestamp",
          "type": "uint256"
        }
      ],
      "name": "ShipmentAutoCancelled",
      "type": "event"
    },
    {
      "anonymous": false,
      "inputs": [
        {
          "indexed": true,
          "internalType": "uint256",
          "name": "shipmentId",
          "type": "uint256"
        },
        {
          "indexed": true,
          "internalType": "address",
          "name": "seller",
          "type": "address"
        },
        {
          "indexed": false,
          "internalType": "uint256",
          "name": "refundedAmount",
          "type": "uint256"
        },
        {
          "indexed": false,
          "internalType": "uint256",
          "name": "timestamp",
          "type": "uint256"
        }
      ],
      "name": "ShipmentCancelled",
      "type": "event"
    },
    {
      "anonymous": false,
      "inputs": [
        {
          "indexed": true,
          "internalType": "uint256",
          "name": "shipmentId",
          "type": "uint256"
        },
        {
          "indexed": true,
          "internalType": "address",
          "name": "nft",
          "type": "address"
        },
        {
          "indexed": true,
          "internalType": "uint256",
          "name": "tokenId",
          "type": "uint256"
        },
        {
          "indexed": false,
          "internalType": "address",
          "name": "seller",
          "type": "address"
        },
        {
          "indexed": false,
          "internalType": "address",
          "name": "buyer",
          "type": "address"
        },
        {
          "indexed": false,
          "internalType": "uint256",
          "name": "price",
          "type": "uint256"
        },
        {
          "indexed": false,
          "internalType": "uint256",
          "name": "timestamp",
          "type": "uint256"
        }
      ],
      "name": "ShipmentCreated",
      "type": "event"
    },
    {
      "anonymous": false,
      "inputs": [
        {
          "indexed": true,
          "internalType": "uint256",
          "name": "shipmentId",
          "type": "uint256"
        },
        {
          "indexed": false,
          "internalType": "uint256",
          "name": "timestamp",
          "type": "uint256"
        },
        {
          "indexed": true,
          "internalType": "address",
          "name": "updater",
          "type": "address"
        },
        {
          "indexed": false,
          "internalType": "string",
          "name": "role",
          "type": "string"
        }
      ],
      "name": "ShipmentDelivered",
      "type": "event"
    },
    {
      "anonymous": false,
      "inputs": [
        {
          "indexed": true,
          "internalType": "uint256",
          "name": "shipmentId",
          "type": "uint256"
        },
        {
          "indexed": true,
          "internalType": "address",
          "name": "buyer",
          "type": "address"
        },
        {
          "indexed": false,
          "internalType": "uint256",
          "name": "refundedAmount",
          "type": "uint256"
        },
        {
          "indexed": false,
          "internalType": "enum NftTracking.RejectionReason",
          "name": "reason",
          "type": "uint8"
        },
        {
          "indexed": false,
          "internalType": "uint256",
          "name": "timestamp",
          "type": "uint256"
        }
      ],
      "name": "ShipmentRejected",
      "type": "event"
    },
    {
      "anonymous": false,
      "inputs": [
        {
          "indexed": true,
          "internalType": "uint256",
          "name": "shipmentId",
          "type": "uint256"
        },
        {
          "indexed": false,
          "internalType": "enum NftTracking.Status",
          "name": "status",
          "type": "uint8"
        },
        {
          "indexed": false,
          "internalType": "uint256",
          "name": "timestamp",
          "type": "uint256"
        },
        {
          "indexed": true,
          "internalType": "address",
          "name": "updater",
          "type": "address"
        },
        {
          "indexed": false,
          "internalType": "string",
          "name": "role",
          "type": "string"
        }
      ],
      "name": "ShipmentUpdated",
      "type": "event"
    },
    {
      "anonymous": false,
      "inputs": [
        {
          "indexed": true,
          "internalType": "uint256",
          "name": "shipmentId",
          "type": "uint256"
        },
        {
          "indexed": true,
          "internalType": "address",
          "name": "thirdParty",
          "type": "address"
        },
        {
          "indexed": true,
          "internalType": "address",
          "name": "seller",
          "type": "address"
        }
      ],
      "name": "ThirdPartyAuthorized",
      "type": "event"
    },
    {
      "anonymous": false,
      "inputs": [
        {
          "indexed": true,
          "internalType": "uint256",
          "name": "shipmentId",
          "type": "uint256"
        },
        {
          "indexed": true,
          "internalType": "address",
          "name": "thirdParty",
          "type": "address"
        },
        {
          "indexed": true,
          "internalType": "address",
          "name": "seller",
          "type": "address"
        }
      ],
      "name": "ThirdPartyRevoked",
      "type": "event"
    },
    {
      "anonymous": false,
      "inputs": [
        {
          "indexed": true,
          "internalType": "uint256",
          "name": "shipmentId",
          "type": "uint256"
        },
        {
          "indexed": true,
          "internalType": "address",
          "name": "from",
          "type": "address"
        }
      ],
      "name": "finalizeShipment",
      "type": "event"
    },
    {
      "inputs": [],
      "name": "defaultDeadlineSeconds",
      "outputs": [
        {
          "internalType": "uint256",
          "name": "",
          "type": "uint256"
        }
      ],
      "stateMutability": "view",
      "type": "function",
      "constant": true
    },
    {
      "inputs": [],
      "name": "defaultRejectionDeadlineSeconds",
      "outputs": [
        {
          "internalType": "uint256",
          "name": "",
          "type": "uint256"
        }
      ],
      "stateMutability": "view",
      "type": "function",
      "constant": true
    },
    {
      "inputs": [],
      "name": "marketplaceContract",
      "outputs": [
        {
          "internalType": "address",
          "name": "",
          "type": "address"
        }
      ],
      "stateMutability": "view",
      "type": "function",
      "constant": true
    },
    {
      "inputs": [],
      "name": "maxEntries",
      "outputs": [
        {
          "internalType": "uint256",
          "name": "",
          "type": "uint256"
        }
      ],
      "stateMutability": "view",
      "type": "function",
      "constant": true
    },
    {
      "inputs": [
        {
          "internalType": "address",
          "name": "",
          "type": "address"
        },
        {
          "internalType": "uint256",
          "name": "",
          "type": "uint256"
        },
        {
          "internalType": "uint256",
          "name": "",
          "type": "uint256"
        }
      ],
      "name": "nftToShipments",
      "outputs": [
        {
          "internalType": "uint256",
          "name": "",
          "type": "uint256"
        }
      ],
      "stateMutability": "view",
      "type": "function",
      "constant": true
    },
    {
      "inputs": [],
      "name": "owner",
      "outputs": [
        {
          "internalType": "address",
          "name": "",
          "type": "address"
        }
      ],
      "stateMutability": "view",
      "type": "function",
      "constant": true
    },
    {
      "inputs": [],
      "name": "refundPercentage",
      "outputs": [
        {
          "internalType": "uint256",
          "name": "",
          "type": "uint256"
        }
      ],
      "stateMutability": "view",
      "type": "function",
      "constant": true
    },
    {
      "inputs": [],
      "name": "shipmentCounter",
      "outputs": [
        {
          "internalType": "uint256",
          "name": "",
          "type": "uint256"
        }
      ],
      "stateMutability": "view",
      "type": "function",
      "constant": true
    },
    {
      "inputs": [
        {
          "internalType": "uint256",
          "name": "",
          "type": "uint256"
        }
      ],
      "name": "shipments",
      "outputs": [
        {
          "internalType": "address",
          "name": "nft",
          "type": "address"
        },
        {
          "internalType": "uint256",
          "name": "tokenId",
          "type": "uint256"
        },
        {
          "internalType": "address",
          "name": "seller",
          "type": "address"
        },
        {
          "internalType": "address",
          "name": "buyer",
          "type": "address"
        },
        {
          "internalType": "uint256",
          "name": "price",
          "type": "uint256"
        },
        {
          "internalType": "enum NftTracking.Status",
          "name": "status",
          "type": "uint8"
        },
        {
          "internalType": "uint256",
          "name": "createdAt",
          "type": "uint256"
        },
        {
          "internalType": "uint256",
          "name": "deliveredAt",
          "type": "uint256"
        }
      ],
      "stateMutability": "view",
      "type": "function",
      "constant": true
    },
    {
      "stateMutability": "payable",
      "type": "receive",
      "payable": true
    },
    {
      "inputs": [
        {
          "internalType": "address",
          "name": "nft",
          "type": "address"
        },
        {
          "internalType": "address",
          "name": "seller",
          "type": "address"
        },
        {
          "internalType": "uint256",
          "name": "tokenId",
          "type": "uint256"
        },
        {
          "internalType": "uint256",
          "name": "price",
          "type": "uint256"
        }
      ],
      "name": "createShipment",
      "outputs": [],
      "stateMutability": "nonpayable",
      "type": "function"
    },
    {
      "inputs": [
        {
          "internalType": "address",
          "name": "nft",
          "type": "address"
        },
        {
          "internalType": "uint256",
          "name": "tokenId",
          "type": "uint256"
        }
      ],
      "name": "getLatestShipmentStatus",
      "outputs": [
        {
          "internalType": "enum NftTracking.Status",
          "name": "",
          "type": "uint8"
        }
      ],
      "stateMutability": "view",
      "type": "function",
      "constant": true
    },
    {
      "inputs": [
        {
          "internalType": "address",
          "name": "nft",
          "type": "address"
        },
        {
          "internalType": "uint256",
          "name": "tokenId",
          "type": "uint256"
        }
      ],
      "name": "getAllShipmentsForNFT",
      "outputs": [
        {
          "internalType": "uint256[]",
          "name": "",
          "type": "uint256[]"
        }
      ],
      "stateMutability": "view",
      "type": "function",
      "constant": true
    },
    {
      "inputs": [
        {
          "internalType": "uint256",
          "name": "shipmentId",
          "type": "uint256"
        },
        {
          "internalType": "address",
          "name": "thirdParty",
          "type": "address"
        }
      ],
      "name": "authorizeThirdParty",
      "outputs": [],
      "stateMutability": "nonpayable",
      "type": "function"
    },
    {
      "inputs": [
        {
          "internalType": "uint256",
          "name": "shipmentId",
          "type": "uint256"
        },
        {
          "internalType": "address",
          "name": "thirdParty",
          "type": "address"
        }
      ],
      "name": "revokeThirdParty",
      "outputs": [],
      "stateMutability": "nonpayable",
      "type": "function"
    },
    {
      "inputs": [
        {
          "internalType": "uint256",
          "name": "shipmentId",
          "type": "uint256"
        },
        {
          "internalType": "bytes32",
          "name": "location",
          "type": "bytes32"
        }
      ],
      "name": "updateShipment",
      "outputs": [],
      "stateMutability": "nonpayable",
      "type": "function"
    },
    {
      "inputs": [
        {
          "internalType": "uint256",
          "name": "shipmentId",
          "type": "uint256"
        }
      ],
      "name": "markAsDelivered",
      "outputs": [],
      "stateMutability": "nonpayable",
      "type": "function"
    },
    {
      "inputs": [
        {
          "internalType": "uint256",
          "name": "shipmentId",
          "type": "uint256"
        },
        {
          "internalType": "enum NftTracking.RejectionReason",
          "name": "reason",
          "type": "uint8"
        }
      ],
      "name": "rejectDelivery",
      "outputs": [],
      "stateMutability": "nonpayable",
      "type": "function"
    },
    {
      "inputs": [
        {
          "internalType": "uint256",
          "name": "shipmentId",
          "type": "uint256"
        }
      ],
      "name": "cancelShipmentBySeller",
      "outputs": [],
      "stateMutability": "nonpayable",
      "type": "function"
    },
    {
      "inputs": [
        {
          "internalType": "uint256",
          "name": "shipmentId",
          "type": "uint256"
        }
      ],
      "name": "autoCancelIfLate",
      "outputs": [],
      "stateMutability": "nonpayable",
      "type": "function"
    },
    {
      "inputs": [
        {
          "internalType": "uint256",
          "name": "shipmentId",
          "type": "uint256"
        }
      ],
      "name": "finalizeDeliveredShipment",
      "outputs": [],
      "stateMutability": "nonpayable",
      "type": "function"
    },
    {
      "inputs": [
        {
          "internalType": "uint256",
          "name": "newPercentage",
          "type": "uint256"
        }
      ],
      "name": "updateRefundPercentage",
      "outputs": [],
      "stateMutability": "nonpayable",
      "type": "function"
    },
    {
      "inputs": [
        {
          "internalType": "uint256",
          "name": "newMax",
          "type": "uint256"
        }
      ],
      "name": "updateMaxEntries",
      "outputs": [],
      "stateMutability": "nonpayable",
      "type": "function"
    },
    {
      "inputs": [
        {
          "internalType": "uint256",
          "name": "newDeadlineSeconds",
          "type": "uint256"
        }
      ],
      "name": "updateDeliveryDeadline",
      "outputs": [],
      "stateMutability": "nonpayable",
      "type": "function"
    },
    {
      "inputs": [
        {
          "internalType": "uint256",
          "name": "newRejectionDeadlineSeconds",
          "type": "uint256"
        }
      ],
      "name": "updateRejectionDeadline",
      "outputs": [],
      "stateMutability": "nonpayable",
      "type": "function"
    },
    {
      "inputs": [
        {
          "internalType": "address",
          "name": "newOwner",
          "type": "address"
        }
      ],
      "name": "transferOwnership",
      "outputs": [],
      "stateMutability": "nonpayable",
      "type": "function"
    },
    {
      "inputs": [
        {
          "internalType": "uint256",
          "name": "shipmentId",
          "type": "uint256"
        }
      ],
      "name": "getShipmentDetails",
      "outputs": [
        {
          "internalType": "bytes32[]",
          "name": "locations",
          "type": "bytes32[]"
        },
        {
          "internalType": "uint256[]",
          "name": "timestamps",
          "type": "uint256[]"
        },
        {
          "internalType": "address[]",
          "name": "authorizedThirdParties",
          "type": "address[]"
        }
      ],
      "stateMutability": "view",
      "type": "function",
      "constant": true
    },
    {
      "inputs": [
        {
          "internalType": "address",
          "name": "seller",
          "type": "address"
        },
        {
          "internalType": "uint256",
          "name": "amount",
          "type": "uint256"
        }
      ],
      "name": "refundListingFeeToSeller",
      "outputs": [],
      "stateMutability": "nonpayable",
      "type": "function"
    },
    {
      "inputs": [],
      "name": "getContractBalance",
      "outputs": [
        {
          "internalType": "uint256",
          "name": "",
          "type": "uint256"
        }
      ],
      "stateMutability": "view",
      "type": "function",
      "constant": true
    }
  ],
  "bytecode": "0x608060405261070860035561012c6004556126936005556005600655348015610026575f5ffd5b506040516147ae3803806147ae83398181016040528101906100489190610133565b60015f819055503360015f6101000a81548173ffffffffffffffffffffffffffffffffffffffff021916908373ffffffffffffffffffffffffffffffffffffffff1602179055508060095f6101000a81548173ffffffffffffffffffffffffffffffffffffffff021916908373ffffffffffffffffffffffffffffffffffffffff1602179055505061015e565b5f5ffd5b5f73ffffffffffffffffffffffffffffffffffffffff82169050919050565b5f610102826100d9565b9050919050565b610112816100f8565b811461011c575f5ffd5b50565b5f8151905061012d81610109565b92915050565b5f60208284031215610148576101476100d5565b5b5f6101558482850161011f565b91505092915050565b6146438061016b5f395ff3fe6080604052600436106101ba575f3560e01c80636f9fb98a116100eb5780639c88f8d511610089578063d1bb5cf111610063578063d1bb5cf1146105fe578063ec8b271314610628578063f23f3ba514610650578063f2fde38b1461067a576101c1565b80639c88f8d514610586578063bee13641146105ae578063c75ddd2d146105d6576101c1565b80638a3ce88b116100c55780638a3ce88b146104e45780638da5cb5b1461050c57806391fe759d14610536578063968ee6ed1461055e576101c1565b80636f9fb98a1461046a57806378dd68a4146104945780637a1ce80b146104bc576101c1565b80634b77ae141161015857806364bd35ad1161013257806364bd35ad146103a0578063693d70aa146103c85780636ac98862146104065780636de36a301461042e576101c1565b80634b77ae14146103245780634cdff2fe1461034e5780634e9ca28f14610378576101c1565b80633155eef4116101945780633155eef41461026c578063390b21101461029457806341cfcdd0146102be5780634647f9da146102fa576101c1565b80631646e568146101c5578063196807ec146102015780632ac08a9314610229576101c1565b366101c157005b5f5ffd5b3480156101d0575f5ffd5b506101eb60048036038101906101e69190613113565b6106a2565b6040516101f891906131c4565b60405180910390f35b34801561020c575f5ffd5b50610227600480360381019061022291906131dd565b610792565b005b348015610234575f5ffd5b5061024f600480360381019061024a91906131dd565b610b3c565b604051610263989796959493929190613226565b60405180910390f35b348015610277575f5ffd5b50610292600480360381019061028d91906131dd565b610be9565b005b34801561029f575f5ffd5b506102a8610cfb565b6040516102b591906132a2565b60405180910390f35b3480156102c9575f5ffd5b506102e460048036038101906102df9190613113565b610d01565b6040516102f19190613372565b60405180910390f35b348015610305575f5ffd5b5061030e610da4565b60405161031b91906132a2565b60405180910390f35b34801561032f575f5ffd5b50610338610daa565b60405161034591906132a2565b60405180910390f35b348015610359575f5ffd5b50610362610db0565b60405161036f91906132a2565b60405180910390f35b348015610383575f5ffd5b5061039e600480360381019061039991906131dd565b610db6565b005b3480156103ab575f5ffd5b506103c660048036038101906103c191906131dd565b610f83565b005b3480156103d3575f5ffd5b506103ee60048036038101906103e991906131dd565b6110a2565b6040516103fd93929190613509565b60405180910390f35b348015610411575f5ffd5b5061042c600480360381019061042791906131dd565b61134e565b005b348015610439575f5ffd5b50610454600480360381019061044f9190613553565b611630565b60405161046191906132a2565b60405180910390f35b348015610475575f5ffd5b5061047e611666565b60405161048b91906132a2565b60405180910390f35b34801561049f575f5ffd5b506104ba60048036038101906104b591906131dd565b61166d565b005b3480156104c7575f5ffd5b506104e260048036038101906104dd91906135a3565b611782565b005b3480156104ef575f5ffd5b5061050a600480360381019061050591906135a3565b611a01565b005b348015610517575f5ffd5b50610520611d38565b60405161052d91906135e1565b60405180910390f35b348015610541575f5ffd5b5061055c6004803603810190610557919061361d565b611d5d565b005b348015610569575f5ffd5b50610584600480360381019061057f91906131dd565b61217f565b005b348015610591575f5ffd5b506105ac60048036038101906105a79190613113565b612498565b005b3480156105b9575f5ffd5b506105d460048036038101906105cf9190613685565b6125dd565b005b3480156105e1575f5ffd5b506105fc60048036038101906105f791906136c3565b6129df565b005b348015610609575f5ffd5b50610612612cd2565b60405161061f91906135e1565b60405180910390f35b348015610633575f5ffd5b5061064e600480360381019061064991906131dd565b612cf7565b005b34801561065b575f5ffd5b50610664612e09565b60405161067191906132a2565b60405180910390f35b348015610685575f5ffd5b506106a0600480360381019061069b9190613727565b612e0f565b005b5f5f60085f8573ffffffffffffffffffffffffffffffffffffffff1673ffffffffffffffffffffffffffffffffffffffff1681526020019081526020015f205f8481526020019081526020015f2090505f818054905011610738576040517f08c379a000000000000000000000000000000000000000000000000000000000815260040161072f906137ac565b60405180910390fd5b5f816001838054905061074b91906137f7565b8154811061075c5761075b61382a565b5b905f5260205f200154905060075f8281526020019081526020015f206005015f9054906101000a900460ff169250505092915050565b8060075f8281526020019081526020015f206002015f9054906101000a900473ffffffffffffffffffffffffffffffffffffffff1673ffffffffffffffffffffffffffffffffffffffff163373ffffffffffffffffffffffffffffffffffffffff1614610834576040517f08c379a000000000000000000000000000000000000000000000000000000000815260040161082b906138a1565b60405180910390fd5b61083c612f4f565b5f60075f8481526020019081526020015f2090506002600581111561086457610863613151565b5b816005015f9054906101000a900460ff16600581111561088757610886613151565b5b141580156108ca5750600360058111156108a4576108a3613151565b5b816005015f9054906101000a900460ff1660058111156108c7576108c6613151565b5b14155b801561090b5750600460058111156108e5576108e4613151565b5b816005015f9054906101000a900460ff16600581111561090857610907613151565b5b14155b61094a576040517f08c379a000000000000000000000000000000000000000000000000000000000815260040161094190613909565b60405180910390fd5b6004816005015f6101000a81548160ff0219169083600581111561097157610970613151565b5b0217905550806003015f9054906101000a900473ffffffffffffffffffffffffffffffffffffffff1673ffffffffffffffffffffffffffffffffffffffff166108fc826004015490811502906040515f60405180830381858888f193505050501580156109e0573d5f5f3e3d5ffd5b50805f015f9054906101000a900473ffffffffffffffffffffffffffffffffffffffff1673ffffffffffffffffffffffffffffffffffffffff166323b872dd826003015f9054906101000a900473ffffffffffffffffffffffffffffffffffffffff16836002015f9054906101000a900473ffffffffffffffffffffffffffffffffffffffff1684600101546040518463ffffffff1660e01b8152600401610a8a93929190613927565b5f604051808303815f87803b158015610aa1575f5ffd5b505af1158015610ab3573d5f5f3e3d5ffd5b50505050806002015f9054906101000a900473ffffffffffffffffffffffffffffffffffffffff1673ffffffffffffffffffffffffffffffffffffffff16837fe796a202599df714109bb6fb3b75bee6a13cf50d4ee107ad106a9d8ecde67529836004015442604051610b2792919061395c565b60405180910390a350610b38612f9c565b5050565b6007602052805f5260405f205f91509050805f015f9054906101000a900473ffffffffffffffffffffffffffffffffffffffff1690806001015490806002015f9054906101000a900473ffffffffffffffffffffffffffffffffffffffff1690806003015f9054906101000a900473ffffffffffffffffffffffffffffffffffffffff1690806004015490806005015f9054906101000a900460ff16908060080154908060090154905088565b60015f9054906101000a900473ffffffffffffffffffffffffffffffffffffffff1673ffffffffffffffffffffffffffffffffffffffff163373ffffffffffffffffffffffffffffffffffffffff1614610c78576040517f08c379a0000000000000000000000000000000000000000000000000000000008152600401610c6f906139cd565b60405180910390fd5b5f8111610cba576040517f08c379a0000000000000000000000000000000000000000000000000000000008152600401610cb190613a35565b60405180910390fd5b806004819055507f1672cd7d032870c2bc5c759e84e2478d750200aaf16f60d3f657af8467ba726281604051610cf091906132a2565b60405180910390a150565b60045481565b606060085f8473ffffffffffffffffffffffffffffffffffffffff1673ffffffffffffffffffffffffffffffffffffffff1681526020019081526020015f205f8381526020019081526020015f20805480602002602001604051908101604052809291908181526020018280548015610d9757602002820191905f5260205f20905b815481526020019060010190808311610d83575b5050505050905092915050565b60025481565b60055481565b60035481565b610dbe612f4f565b5f60075f8381526020019081526020015f20905060026005811115610de657610de5613151565b5b816005015f9054906101000a900460ff166005811115610e0957610e08613151565b5b14610e49576040517f08c379a0000000000000000000000000000000000000000000000000000000008152600401610e4090613a9d565b60405180910390fd5b6004548160090154610e5b9190613abb565b4211610e9c576040517f08c379a0000000000000000000000000000000000000000000000000000000008152600401610e9390613b38565b60405180910390fd5b806002015f9054906101000a900473ffffffffffffffffffffffffffffffffffffffff1673ffffffffffffffffffffffffffffffffffffffff166108fc826004015490811502906040515f60405180830381858888f19350505050158015610f06573d5f5f3e3d5ffd5b506005816005015f6101000a81548160ff02191690836005811115610f2e57610f2d613151565b5b02179055503373ffffffffffffffffffffffffffffffffffffffff16827f5c68e6d163a090e4ead03e00c79e7603cb1ee9e5b1f1fec966afa09e9ac6a28160405160405180910390a350610f80612f9c565b50565b60015f9054906101000a900473ffffffffffffffffffffffffffffffffffffffff1673ffffffffffffffffffffffffffffffffffffffff163373ffffffffffffffffffffffffffffffffffffffff1614611012576040517f08c379a0000000000000000000000000000000000000000000000000000000008152600401611009906139cd565b60405180910390fd5b5f811180156110225750600a8111155b611061576040517f08c379a000000000000000000000000000000000000000000000000000000000815260040161105890613ba0565b60405180910390fd5b806006819055507f51f2543afa9055ec9868e43908c166a968c43b52e448942c871d5ba47ab388668160405161109791906132a2565b60405180910390a150565b6060806060835f60075f8381526020019081526020015f209050806002015f9054906101000a900473ffffffffffffffffffffffffffffffffffffffff1673ffffffffffffffffffffffffffffffffffffffff163373ffffffffffffffffffffffffffffffffffffffff1614806111675750806003015f9054906101000a900473ffffffffffffffffffffffffffffffffffffffff1673ffffffffffffffffffffffffffffffffffffffff163373ffffffffffffffffffffffffffffffffffffffff16145b806111ba575080600b015f3373ffffffffffffffffffffffffffffffffffffffff1673ffffffffffffffffffffffffffffffffffffffff1681526020019081526020015f205f9054906101000a900460ff165b6111f9576040517f08c379a00000000000000000000000000000000000000000000000000000000081526004016111f090613c08565b60405180910390fd5b5f60075f8881526020019081526020015f209050806006018160070182600a018280548060200260200160405190810160405280929190818152602001828054801561126257602002820191905f5260205f20905b81548152602001906001019080831161124e575b50505050509250818054806020026020016040519081016040528092919081815260200182805480156112b257602002820191905f5260205f20905b81548152602001906001019080831161129e575b505050505091508080548060200260200160405190810160405280929190818152602001828054801561133757602002820191905f5260205f20905b815f9054906101000a900473ffffffffffffffffffffffffffffffffffffffff1673ffffffffffffffffffffffffffffffffffffffff16815260200190600101908083116112ee575b505050505090509550955095505050509193909250565b5f60075f8381526020019081526020015f2090505f600581111561137557611374613151565b5b816005015f9054906101000a900460ff16600581111561139857611397613151565b5b14806113d85750600160058111156113b3576113b2613151565b5b816005015f9054906101000a900460ff1660058111156113d6576113d5613151565b5b145b611417576040517f08c379a000000000000000000000000000000000000000000000000000000000815260040161140e90613c70565b60405180910390fd5b60035481600801546114299190613abb565b421161146a576040517f08c379a000000000000000000000000000000000000000000000000000000000815260040161146190613cd8565b60405180910390fd5b6004816005015f6101000a81548160ff0219169083600581111561149157611490613151565b5b0217905550806003015f9054906101000a900473ffffffffffffffffffffffffffffffffffffffff1673ffffffffffffffffffffffffffffffffffffffff166108fc826004015490811502906040515f60405180830381858888f19350505050158015611500573d5f5f3e3d5ffd5b50805f015f9054906101000a900473ffffffffffffffffffffffffffffffffffffffff1673ffffffffffffffffffffffffffffffffffffffff166323b872dd826003015f9054906101000a900473ffffffffffffffffffffffffffffffffffffffff16836002015f9054906101000a900473ffffffffffffffffffffffffffffffffffffffff1684600101546040518463ffffffff1660e01b81526004016115aa93929190613927565b5f604051808303815f87803b1580156115c1575f5ffd5b505af11580156115d3573d5f5f3e3d5ffd5b505050503373ffffffffffffffffffffffffffffffffffffffff16827fd94c2cf34a52cb6f6e3c21c176460800782e4bc687401b6bcb3941fdacce21cb83600401544260405161162492919061395c565b60405180910390a35050565b6008602052825f5260405f20602052815f5260405f208181548110611653575f80fd5b905f5260205f20015f9250925050505481565b5f47905090565b60015f9054906101000a900473ffffffffffffffffffffffffffffffffffffffff1673ffffffffffffffffffffffffffffffffffffffff163373ffffffffffffffffffffffffffffffffffffffff16146116fc576040517f08c379a00000000000000000000000000000000000000000000000000000000081526004016116f3906139cd565b60405180910390fd5b612710811115611741576040517f08c379a000000000000000000000000000000000000000000000000000000000815260040161173890613d40565b60405180910390fd5b806005819055507f0e06073e1625355f42edb20e429493bbfe72354502554da39e95ea2c71fe87cb8160405161177791906132a2565b60405180910390a150565b8160075f8281526020019081526020015f206002015f9054906101000a900473ffffffffffffffffffffffffffffffffffffffff1673ffffffffffffffffffffffffffffffffffffffff163373ffffffffffffffffffffffffffffffffffffffff1614611824576040517f08c379a000000000000000000000000000000000000000000000000000000000815260040161181b906138a1565b60405180910390fd5b5f60075f8581526020019081526020015f20905080600b015f8473ffffffffffffffffffffffffffffffffffffffff1673ffffffffffffffffffffffffffffffffffffffff1681526020019081526020015f205f9054906101000a900460ff16156118c4576040517f08c379a00000000000000000000000000000000000000000000000000000000081526004016118bb90613da8565b60405180910390fd5b600181600b015f8573ffffffffffffffffffffffffffffffffffffffff1673ffffffffffffffffffffffffffffffffffffffff1681526020019081526020015f205f6101000a81548160ff02191690831515021790555080600a0183908060018154018082558091505060019003905f5260205f20015f9091909190916101000a81548173ffffffffffffffffffffffffffffffffffffffff021916908373ffffffffffffffffffffffffffffffffffffffff160217905550806002015f9054906101000a900473ffffffffffffffffffffffffffffffffffffffff1673ffffffffffffffffffffffffffffffffffffffff168373ffffffffffffffffffffffffffffffffffffffff16857fae2552cae1d8a625c037d7bfdb4a36879c88ced722b4bae0cc0313df4e0b0f7960405160405180910390a450505050565b8160075f8281526020019081526020015f206002015f9054906101000a900473ffffffffffffffffffffffffffffffffffffffff1673ffffffffffffffffffffffffffffffffffffffff163373ffffffffffffffffffffffffffffffffffffffff1614611aa3576040517f08c379a0000000000000000000000000000000000000000000000000000000008152600401611a9a906138a1565b60405180910390fd5b5f60075f8581526020019081526020015f20905080600b015f8473ffffffffffffffffffffffffffffffffffffffff1673ffffffffffffffffffffffffffffffffffffffff1681526020019081526020015f205f9054906101000a900460ff16611b42576040517f08c379a0000000000000000000000000000000000000000000000000000000008152600401611b3990613c08565b60405180910390fd5b5f81600b015f8573ffffffffffffffffffffffffffffffffffffffff1673ffffffffffffffffffffffffffffffffffffffff1681526020019081526020015f205f6101000a81548160ff0219169083151502179055505f611ba38285612fa5565b9050600182600a0180549050611bb991906137f7565b811015611c6d5781600a01600183600a0180549050611bd891906137f7565b81548110611be957611be861382a565b5b905f5260205f20015f9054906101000a900473ffffffffffffffffffffffffffffffffffffffff1682600a018281548110611c2757611c2661382a565b5b905f5260205f20015f6101000a81548173ffffffffffffffffffffffffffffffffffffffff021916908373ffffffffffffffffffffffffffffffffffffffff1602179055505b81600a01805480611c8157611c80613dc6565b5b600190038181905f5260205f20015f6101000a81549073ffffffffffffffffffffffffffffffffffffffff02191690559055816002015f9054906101000a900473ffffffffffffffffffffffffffffffffffffffff1673ffffffffffffffffffffffffffffffffffffffff168473ffffffffffffffffffffffffffffffffffffffff16867f42a6c2bd4871f820d98e9aac966bb00dc6209a903e954d33061a99a57c8dd7fa60405160405180910390a45050505050565b60015f9054906101000a900473ffffffffffffffffffffffffffffffffffffffff1681565b8160075f8281526020019081526020015f206003015f9054906101000a900473ffffffffffffffffffffffffffffffffffffffff1673ffffffffffffffffffffffffffffffffffffffff163373ffffffffffffffffffffffffffffffffffffffff1614611dff576040517f08c379a0000000000000000000000000000000000000000000000000000000008152600401611df690613e3d565b60405180910390fd5b611e07612f4f565b5f60075f8581526020019081526020015f20905060026005811115611e2f57611e2e613151565b5b816005015f9054906101000a900460ff166005811115611e5257611e51613151565b5b14611e92576040517f08c379a0000000000000000000000000000000000000000000000000000000008152600401611e8990613a9d565b60405180910390fd5b6004548160090154611ea49190613abb565b421115611ee6576040517f08c379a0000000000000000000000000000000000000000000000000000000008152600401611edd90613ea5565b60405180910390fd5b6003816005015f6101000a81548160ff02191690836005811115611f0d57611f0c613151565b5b02179055505f6127106005548360040154611f289190613ec3565b611f329190613f31565b90505f612710607d8460040154611f499190613ec3565b611f539190613f31565b9050826003015f9054906101000a900473ffffffffffffffffffffffffffffffffffffffff1673ffffffffffffffffffffffffffffffffffffffff166108fc8390811502906040515f60405180830381858888f19350505050158015611fbb573d5f5f3e3d5ffd5b50826002015f9054906101000a900473ffffffffffffffffffffffffffffffffffffffff1673ffffffffffffffffffffffffffffffffffffffff166108fc8290811502906040515f60405180830381858888f19350505050158015612022573d5f5f3e3d5ffd5b50825f015f9054906101000a900473ffffffffffffffffffffffffffffffffffffffff1673ffffffffffffffffffffffffffffffffffffffff166323b872dd846003015f9054906101000a900473ffffffffffffffffffffffffffffffffffffffff16856002015f9054906101000a900473ffffffffffffffffffffffffffffffffffffffff1686600101546040518463ffffffff1660e01b81526004016120cc93929190613927565b5f604051808303815f87803b1580156120e3575f5ffd5b505af11580156120f5573d5f5f3e3d5ffd5b50505050826003015f9054906101000a900473ffffffffffffffffffffffffffffffffffffffff1673ffffffffffffffffffffffffffffffffffffffff16867f4176ed1979d228e807b3de57fca63051a71170c14b7a6e45ab3a779147b3eb1b84884260405161216793929190613fa7565b60405180910390a350505061217a612f9c565b505050565b5f60075f8381526020019081526020015f20905060035481600801546121a59190613abb565b4211156121e7576040517f08c379a00000000000000000000000000000000000000000000000000000000081526004016121de90614026565b60405180910390fd5b600260058111156121fb576121fa613151565b5b816005015f9054906101000a900460ff16600581111561221e5761221d613151565b5b0361225e576040517f08c379a00000000000000000000000000000000000000000000000000000000081526004016122559061408e565b60405180910390fd5b806002015f9054906101000a900473ffffffffffffffffffffffffffffffffffffffff1673ffffffffffffffffffffffffffffffffffffffff163373ffffffffffffffffffffffffffffffffffffffff161480612303575080600b015f3373ffffffffffffffffffffffffffffffffffffffff1673ffffffffffffffffffffffffffffffffffffffff1681526020019081526020015f205f9054906101000a900460ff165b612342576040517f08c379a0000000000000000000000000000000000000000000000000000000008152600401612339906140f6565b60405180910390fd5b6002816005015f6101000a81548160ff0219169083600581111561236957612368613151565b5b02179055504281600901819055505f816002015f9054906101000a900473ffffffffffffffffffffffffffffffffffffffff1673ffffffffffffffffffffffffffffffffffffffff163373ffffffffffffffffffffffffffffffffffffffff1614612409576040518060400160405280600a81526020017f5468697264506172747900000000000000000000000000000000000000000000815250612440565b6040518060400160405280600681526020017f53656c6c657200000000000000000000000000000000000000000000000000008152505b90503373ffffffffffffffffffffffffffffffffffffffff16837ff95a08a9a6a6ada12722ee8be0ba7b369c5fbd2d1bd861a69e78e00f5a5d9eb4428460405161248b929190614174565b60405180910390a3505050565b60095f9054906101000a900473ffffffffffffffffffffffffffffffffffffffff1673ffffffffffffffffffffffffffffffffffffffff163373ffffffffffffffffffffffffffffffffffffffff1614612527576040517f08c379a000000000000000000000000000000000000000000000000000000000815260040161251e906141ec565b60405180910390fd5b5f73ffffffffffffffffffffffffffffffffffffffff168273ffffffffffffffffffffffffffffffffffffffff1603612595576040517f08c379a000000000000000000000000000000000000000000000000000000000815260040161258c90614254565b60405180910390fd5b8173ffffffffffffffffffffffffffffffffffffffff166108fc8290811502906040515f60405180830381858888f193505050501580156125d8573d5f5f3e3d5ffd5b505050565b6125e5612f4f565b5f60075f8481526020019081526020015f2090506003600581111561260d5761260c613151565b5b816005015f9054906101000a900460ff1660058111156126305761262f613151565b5b1415801561267357506004600581111561264d5761264c613151565b5b816005015f9054906101000a900460ff1660058111156126705761266f613151565b5b14155b80156126b457506002600581111561268e5761268d613151565b5b816005015f9054906101000a900460ff1660058111156126b1576126b0613151565b5b14155b6126f3576040517f08c379a00000000000000000000000000000000000000000000000000000000081526004016126ea906142bc565b60405180910390fd5b806002015f9054906101000a900473ffffffffffffffffffffffffffffffffffffffff1673ffffffffffffffffffffffffffffffffffffffff163373ffffffffffffffffffffffffffffffffffffffff161480612798575080600b015f3373ffffffffffffffffffffffffffffffffffffffff1673ffffffffffffffffffffffffffffffffffffffff1681526020019081526020015f205f9054906101000a900460ff165b6127d7576040517f08c379a00000000000000000000000000000000000000000000000000000000081526004016127ce906140f6565b60405180910390fd5b60065481600601805490501080156127f757506006548160070180549050105b612836576040517f08c379a000000000000000000000000000000000000000000000000000000000815260040161282d90614324565b60405180910390fd5b6001816005015f6101000a81548160ff0219169083600581111561285d5761285c613151565b5b02179055508060060182908060018154018082558091505060019003905f5260205f20015f90919091909150558060070142908060018154018082558091505060019003905f5260205f20015f90919091909150555f816002015f9054906101000a900473ffffffffffffffffffffffffffffffffffffffff1673ffffffffffffffffffffffffffffffffffffffff163373ffffffffffffffffffffffffffffffffffffffff1614612944576040518060400160405280600a81526020017f546869726450617274790000000000000000000000000000000000000000000081525061297b565b6040518060400160405280600681526020017f53656c6c657200000000000000000000000000000000000000000000000000008152505b90503373ffffffffffffffffffffffffffffffffffffffff16847f023e60641a68506e146f8f765cde5159f3ad8e3b649f39466df05108573882aa600142856040516129c993929190614342565b60405180910390a350506129db612f9c565b5050565b5f8490503373ffffffffffffffffffffffffffffffffffffffff168173ffffffffffffffffffffffffffffffffffffffff16636352211e856040518263ffffffff1660e01b8152600401612a3391906132a2565b602060405180830381865afa158015612a4e573d5f5f3e3d5ffd5b505050506040513d601f19601f82011682018060405250810190612a729190614392565b73ffffffffffffffffffffffffffffffffffffffff1614612ac8576040517f08c379a0000000000000000000000000000000000000000000000000000000008152600401612abf9061442d565b60405180910390fd5b60025f815480929190612ada9061444b565b91905055505f60075f60025481526020019081526020015f20905085815f015f6101000a81548173ffffffffffffffffffffffffffffffffffffffff021916908373ffffffffffffffffffffffffffffffffffffffff16021790555083816001018190555084816002015f6101000a81548173ffffffffffffffffffffffffffffffffffffffff021916908373ffffffffffffffffffffffffffffffffffffffff16021790555033816003015f6101000a81548173ffffffffffffffffffffffffffffffffffffffff021916908373ffffffffffffffffffffffffffffffffffffffff1602179055508281600401819055505f816005015f6101000a81548160ff02191690836005811115612bf257612bf1613151565b5b021790555042816008018190555060085f8773ffffffffffffffffffffffffffffffffffffffff1673ffffffffffffffffffffffffffffffffffffffff1681526020019081526020015f205f8581526020019081526020015f20600254908060018154018082558091505060019003905f5260205f20015f9091909190915055838673ffffffffffffffffffffffffffffffffffffffff166002547f8759997fc11d06ef066240f1d03949d3faadfd14a690228c8ac12788dba1c2c888338842604051612cc29493929190614492565b60405180910390a4505050505050565b60095f9054906101000a900473ffffffffffffffffffffffffffffffffffffffff1681565b60015f9054906101000a900473ffffffffffffffffffffffffffffffffffffffff1673ffffffffffffffffffffffffffffffffffffffff163373ffffffffffffffffffffffffffffffffffffffff1614612d86576040517f08c379a0000000000000000000000000000000000000000000000000000000008152600401612d7d906139cd565b60405180910390fd5b5f8111612dc8576040517f08c379a0000000000000000000000000000000000000000000000000000000008152600401612dbf90613a35565b60405180910390fd5b806003819055507ffa6068fdc5e9aad64536feb631f67e72c89412014d080b9871956ea43563b3a981604051612dfe91906132a2565b60405180910390a150565b60065481565b60015f9054906101000a900473ffffffffffffffffffffffffffffffffffffffff1673ffffffffffffffffffffffffffffffffffffffff163373ffffffffffffffffffffffffffffffffffffffff1614612e9e576040517f08c379a0000000000000000000000000000000000000000000000000000000008152600401612e95906139cd565b60405180910390fd5b5f73ffffffffffffffffffffffffffffffffffffffff168173ffffffffffffffffffffffffffffffffffffffff1603612f0c576040517f08c379a0000000000000000000000000000000000000000000000000000000008152600401612f039061451f565b60405180910390fd5b8060015f6101000a81548173ffffffffffffffffffffffffffffffffffffffff021916908373ffffffffffffffffffffffffffffffffffffffff16021790555050565b60025f5403612f93576040517f08c379a0000000000000000000000000000000000000000000000000000000008152600401612f8a90614587565b60405180910390fd5b60025f81905550565b60015f81905550565b5f5f5f90505b83600a0180549050811015613040578273ffffffffffffffffffffffffffffffffffffffff1684600a018281548110612fe757612fe661382a565b5b905f5260205f20015f9054906101000a900473ffffffffffffffffffffffffffffffffffffffff1673ffffffffffffffffffffffffffffffffffffffff1603613033578091505061307c565b8080600101915050612fab565b506040517f08c379a0000000000000000000000000000000000000000000000000000000008152600401613073906145ef565b60405180910390fd5b92915050565b5f5ffd5b5f73ffffffffffffffffffffffffffffffffffffffff82169050919050565b5f6130af82613086565b9050919050565b6130bf816130a5565b81146130c9575f5ffd5b50565b5f813590506130da816130b6565b92915050565b5f819050919050565b6130f2816130e0565b81146130fc575f5ffd5b50565b5f8135905061310d816130e9565b92915050565b5f5f6040838503121561312957613128613082565b5b5f613136858286016130cc565b9250506020613147858286016130ff565b9150509250929050565b7f4e487b71000000000000000000000000000000000000000000000000000000005f52602160045260245ffd5b6006811061318f5761318e613151565b5b50565b5f81905061319f8261317e565b919050565b5f6131ae82613192565b9050919050565b6131be816131a4565b82525050565b5f6020820190506131d75f8301846131b5565b92915050565b5f602082840312156131f2576131f1613082565b5b5f6131ff848285016130ff565b91505092915050565b613211816130a5565b82525050565b613220816130e0565b82525050565b5f6101008201905061323a5f83018b613208565b613247602083018a613217565b6132546040830189613208565b6132616060830188613208565b61326e6080830187613217565b61327b60a08301866131b5565b61328860c0830185613217565b61329560e0830184613217565b9998505050505050505050565b5f6020820190506132b55f830184613217565b92915050565b5f81519050919050565b5f82825260208201905092915050565b5f819050602082019050919050565b6132ed816130e0565b82525050565b5f6132fe83836132e4565b60208301905092915050565b5f602082019050919050565b5f613320826132bb565b61332a81856132c5565b9350613335836132d5565b805f5b8381101561336557815161334c88826132f3565b97506133578361330a565b925050600181019050613338565b5085935050505092915050565b5f6020820190508181035f83015261338a8184613316565b905092915050565b5f81519050919050565b5f82825260208201905092915050565b5f819050602082019050919050565b5f819050919050565b6133cd816133bb565b82525050565b5f6133de83836133c4565b60208301905092915050565b5f602082019050919050565b5f61340082613392565b61340a818561339c565b9350613415836133ac565b805f5b8381101561344557815161342c88826133d3565b9750613437836133ea565b925050600181019050613418565b5085935050505092915050565b5f81519050919050565b5f82825260208201905092915050565b5f819050602082019050919050565b613484816130a5565b82525050565b5f613495838361347b565b60208301905092915050565b5f602082019050919050565b5f6134b782613452565b6134c1818561345c565b93506134cc8361346c565b805f5b838110156134fc5781516134e3888261348a565b97506134ee836134a1565b9250506001810190506134cf565b5085935050505092915050565b5f6060820190508181035f83015261352181866133f6565b905081810360208301526135358185613316565b9050818103604083015261354981846134ad565b9050949350505050565b5f5f5f6060848603121561356a57613569613082565b5b5f613577868287016130cc565b9350506020613588868287016130ff565b9250506040613599868287016130ff565b9150509250925092565b5f5f604083850312156135b9576135b8613082565b5b5f6135c6858286016130ff565b92505060206135d7858286016130cc565b9150509250929050565b5f6020820190506135f45f830184613208565b92915050565b60038110613606575f5ffd5b50565b5f81359050613617816135fa565b92915050565b5f5f6040838503121561363357613632613082565b5b5f613640858286016130ff565b925050602061365185828601613609565b9150509250929050565b613664816133bb565b811461366e575f5ffd5b50565b5f8135905061367f8161365b565b92915050565b5f5f6040838503121561369b5761369a613082565b5b5f6136a8858286016130ff565b92505060206136b985828601613671565b9150509250929050565b5f5f5f5f608085870312156136db576136da613082565b5b5f6136e8878288016130cc565b94505060206136f9878288016130cc565b935050604061370a878288016130ff565b925050606061371b878288016130ff565b91505092959194509250565b5f6020828403121561373c5761373b613082565b5b5f613749848285016130cc565b91505092915050565b5f82825260208201905092915050565b7f4e6f20736869706d656e7420666f756e640000000000000000000000000000005f82015250565b5f613796601183613752565b91506137a182613762565b602082019050919050565b5f6020820190508181035f8301526137c38161378a565b9050919050565b7f4e487b71000000000000000000000000000000000000000000000000000000005f52601160045260245ffd5b5f613801826130e0565b915061380c836130e0565b9250828203905081811115613824576138236137ca565b5b92915050565b7f4e487b71000000000000000000000000000000000000000000000000000000005f52603260045260245ffd5b7f4e6f742073656c6c6572000000000000000000000000000000000000000000005f82015250565b5f61388b600a83613752565b915061389682613857565b602082019050919050565b5f6020820190508181035f8301526138b88161387f565b9050919050565b7f43616e6e6f742063616e63656c000000000000000000000000000000000000005f82015250565b5f6138f3600d83613752565b91506138fe826138bf565b602082019050919050565b5f6020820190508181035f830152613920816138e7565b9050919050565b5f60608201905061393a5f830186613208565b6139476020830185613208565b6139546040830184613217565b949350505050565b5f60408201905061396f5f830185613217565b61397c6020830184613217565b9392505050565b7f4e6f7420746865206f776e6572000000000000000000000000000000000000005f82015250565b5f6139b7600d83613752565b91506139c282613983565b602082019050919050565b5f6020820190508181035f8301526139e4816139ab565b9050919050565b7f446561646c696e65206d75737420626520706f736974697665000000000000005f82015250565b5f613a1f601983613752565b9150613a2a826139eb565b602082019050919050565b5f6020820190508181035f830152613a4c81613a13565b9050919050565b7f4e6f742064656c697665726564000000000000000000000000000000000000005f82015250565b5f613a87600d83613752565b9150613a9282613a53565b602082019050919050565b5f6020820190508181035f830152613ab481613a7b565b9050919050565b5f613ac5826130e0565b9150613ad0836130e0565b9250828201905080821115613ae857613ae76137ca565b5b92915050565b7f52656a656374696f6e2077696e646f77206e6f742070617373656400000000005f82015250565b5f613b22601b83613752565b9150613b2d82613aee565b602082019050919050565b5f6020820190508181035f830152613b4f81613b16565b9050919050565b7f312d3130206f6e6c7900000000000000000000000000000000000000000000005f82015250565b5f613b8a600983613752565b9150613b9582613b56565b602082019050919050565b5f6020820190508181035f830152613bb781613b7e565b9050919050565b7f4e6f7420617574686f72697a65640000000000000000000000000000000000005f82015250565b5f613bf2600e83613752565b9150613bfd82613bbe565b602082019050919050565b5f6020820190508181035f830152613c1f81613be6565b9050919050565b7f4e6f7420656c696769626c6500000000000000000000000000000000000000005f82015250565b5f613c5a600c83613752565b9150613c6582613c26565b602082019050919050565b5f6020820190508181035f830152613c8781613c4e565b9050919050565b7f446561646c696e65206e6f7420706173736564000000000000000000000000005f82015250565b5f613cc2601383613752565b9150613ccd82613c8e565b602082019050919050565b5f6020820190508181035f830152613cef81613cb6565b9050919050565b7f4d617820313030250000000000000000000000000000000000000000000000005f82015250565b5f613d2a600883613752565b9150613d3582613cf6565b602082019050919050565b5f6020820190508181035f830152613d5781613d1e565b9050919050565b7f416c726561647920617574686f72697a656400000000000000000000000000005f82015250565b5f613d92601283613752565b9150613d9d82613d5e565b602082019050919050565b5f6020820190508181035f830152613dbf81613d86565b9050919050565b7f4e487b71000000000000000000000000000000000000000000000000000000005f52603160045260245ffd5b7f4e6f7420627579657200000000000000000000000000000000000000000000005f82015250565b5f613e27600983613752565b9150613e3282613df3565b602082019050919050565b5f6020820190508181035f830152613e5481613e1b565b9050919050565b7f52656a656374696f6e2077696e646f77206578706972656400000000000000005f82015250565b5f613e8f601883613752565b9150613e9a82613e5b565b602082019050919050565b5f6020820190508181035f830152613ebc81613e83565b9050919050565b5f613ecd826130e0565b9150613ed8836130e0565b9250828202613ee6816130e0565b91508282048414831517613efd57613efc6137ca565b5b5092915050565b7f4e487b71000000000000000000000000000000000000000000000000000000005f52601260045260245ffd5b5f613f3b826130e0565b9150613f46836130e0565b925082613f5657613f55613f04565b5b828204905092915050565b60038110613f7257613f71613151565b5b50565b5f819050613f8282613f61565b919050565b5f613f9182613f75565b9050919050565b613fa181613f87565b82525050565b5f606082019050613fba5f830186613217565b613fc76020830185613f98565b613fd46040830184613217565b949350505050565b7f446561646c696e652070617373656400000000000000000000000000000000005f82015250565b5f614010600f83613752565b915061401b82613fdc565b602082019050919050565b5f6020820190508181035f83015261403d81614004565b9050919050565b7f416c72656164792064656c6976657265640000000000000000000000000000005f82015250565b5f614078601183613752565b915061408382614044565b602082019050919050565b5f6020820190508181035f8301526140a58161406c565b9050919050565b7f556e617574686f72697a656400000000000000000000000000000000000000005f82015250565b5f6140e0600c83613752565b91506140eb826140ac565b602082019050919050565b5f6020820190508181035f83015261410d816140d4565b9050919050565b5f81519050919050565b8281835e5f83830152505050565b5f601f19601f8301169050919050565b5f61414682614114565b6141508185613752565b935061416081856020860161411e565b6141698161412c565b840191505092915050565b5f6040820190506141875f830185613217565b8181036020830152614199818461413c565b90509392505050565b7f4f6e6c79206d61726b6574706c6163652063616e2063616c6c207468697300005f82015250565b5f6141d6601e83613752565b91506141e1826141a2565b602082019050919050565b5f6020820190508181035f830152614203816141ca565b9050919050565b7f496e76616c6964206164647265737300000000000000000000000000000000005f82015250565b5f61423e600f83613752565b91506142498261420a565b602082019050919050565b5f6020820190508181035f83015261426b81614232565b9050919050565b7f536869706d656e7420636c6f73656400000000000000000000000000000000005f82015250565b5f6142a6600f83613752565b91506142b182614272565b602082019050919050565b5f6020820190508181035f8301526142d38161429a565b9050919050565b7f4d617820656e74726965732072656163686564000000000000000000000000005f82015250565b5f61430e601383613752565b9150614319826142da565b602082019050919050565b5f6020820190508181035f83015261433b81614302565b9050919050565b5f6060820190506143555f8301866131b5565b6143626020830185613217565b8181036040830152614374818461413c565b9050949350505050565b5f8151905061438c816130b6565b92915050565b5f602082840312156143a7576143a6613082565b5b5f6143b48482850161437e565b91505092915050565b7f4f6e6c7920746f6b656e206f776e65722063616e2063726561746520736869705f8201527f6d656e7400000000000000000000000000000000000000000000000000000000602082015250565b5f614417602483613752565b9150614422826143bd565b604082019050919050565b5f6020820190508181035f8301526144448161440b565b9050919050565b5f614455826130e0565b91507fffffffffffffffffffffffffffffffffffffffffffffffffffffffffffffffff8203614487576144866137ca565b5b600182019050919050565b5f6080820190506144a55f830187613208565b6144b26020830186613208565b6144bf6040830185613217565b6144cc6060830184613217565b95945050505050565b7f5a65726f206164647265737300000000000000000000000000000000000000005f82015250565b5f614509600c83613752565b9150614514826144d5565b602082019050919050565b5f6020820190508181035f830152614536816144fd565b9050919050565b7f5265656e7472616e637947756172643a207265656e7472616e742063616c6c005f82015250565b5f614571601f83613752565b915061457c8261453d565b602082019050919050565b5f6020820190508181035f83015261459e81614565565b9050919050565b7f5468697264207061727479206e6f7420666f756e6400000000000000000000005f82015250565b5f6145d9601583613752565b91506145e4826145a5565b602082019050919050565b5f6020820190508181035f830152614606816145cd565b905091905056fea26469706673582212203b4cef131b8051a8438e413bd590dd59e3e7b03f71fc70ad3ef4704af2c0cabc64736f6c634300081d0033",
  "immutableReferences": {},
  "source": "// SPDX-License-Identifier: MIT\r\npragma solidity ^0.8.1;\r\n\r\nimport \"@openzeppelin/contracts/token/ERC721/IERC721.sol\";\r\nimport \"@openzeppelin/contracts/security/ReentrancyGuard.sol\";\r\n\r\ncontract NftTracking is ReentrancyGuard {\r\n    enum Status { Created, InTransit, Delivered, Rejected, Cancelled,Finalized }\r\n    enum RejectionReason { Damaged, WrongItem, Other }\r\n\r\n    address public owner;\r\n    uint256 public shipmentCounter;\r\n    uint256 public defaultDeadlineSeconds = 1800; // 30 minutes\r\n    uint256 public defaultRejectionDeadlineSeconds = 300; // 5 minute\r\n    uint256 public refundPercentage = 9875; // 98.75%\r\n    uint256 public maxEntries = 5;\r\n\r\n    modifier onlyOwner() {\r\n        require(msg.sender == owner, \"Not the owner\");\r\n        _;\r\n    }\r\n\r\n    modifier onlyBuyer(uint256 shipmentId) {\r\n        require(msg.sender == shipments[shipmentId].buyer, \"Not buyer\");\r\n        _;\r\n    }\r\n\r\n    modifier onlySeller(uint256 shipmentId) {\r\n        require(msg.sender == shipments[shipmentId].seller, \"Not seller\");\r\n        _;\r\n    }\r\n\r\n    modifier onlyAuthorizedThirdParty(uint256 shipmentId) {\r\n        require(\r\n            shipments[shipmentId].isAuthorizedThirdParty[msg.sender],\r\n            \"Not authorized third party\"\r\n        );\r\n        _;\r\n    }\r\n\r\n    modifier onlyAuthorized(uint256 shipmentId) {\r\n        Shipment storage s = shipments[shipmentId];\r\n        require(\r\n            msg.sender == s.seller ||\r\n            msg.sender == s.buyer ||\r\n            s.isAuthorizedThirdParty[msg.sender],\r\n            \"Not authorized\"\r\n        );\r\n        _;\r\n    }\r\n\r\n    struct Shipment {\r\n        address nft;\r\n        uint256 tokenId;\r\n        address seller;\r\n        address buyer;\r\n        uint256 price;\r\n        Status status;\r\n        bytes32[] locations;\r\n        uint256[] timestamps;\r\n        uint256 createdAt;\r\n        uint256 deliveredAt;\r\n        address[] authorizedThirdParties;\r\n        mapping(address => bool) isAuthorizedThirdParty;\r\n    }\r\n\r\n    mapping(uint256 => Shipment) public shipments;\r\n    mapping(address => mapping(uint256 => uint256[])) public nftToShipments;\r\n\r\n    address public marketplaceContract;\r\n\r\n    event ShipmentCreated(\r\n        uint256 indexed shipmentId,\r\n        address indexed nft,\r\n        uint256 indexed tokenId,\r\n        address seller,\r\n        address buyer,\r\n        uint256 price,\r\n        uint256 timestamp\r\n    );\r\n\r\n    event ShipmentUpdated(\r\n        uint256 indexed shipmentId,\r\n        Status status,\r\n        uint256 timestamp,\r\n        address indexed updater,\r\n        string role\r\n    );\r\n\r\n    event ShipmentDelivered(\r\n        uint256 indexed shipmentId,\r\n        uint256 timestamp,\r\n        address indexed updater,\r\n        string role\r\n    );\r\n\r\n    event ShipmentRejected(\r\n        uint256 indexed shipmentId,\r\n        address indexed buyer,\r\n        uint256 refundedAmount,\r\n        RejectionReason reason,\r\n        uint256 timestamp\r\n    );\r\n\r\n    event ShipmentCancelled(\r\n        uint256 indexed shipmentId,\r\n        address indexed seller,\r\n        uint256 refundedAmount,\r\n        uint256 timestamp\r\n    );\r\n\r\n    event ShipmentAutoCancelled(\r\n        uint256 indexed shipmentId,\r\n        address indexed sender,\r\n        uint256 refundedAmount,\r\n        uint256 timestamp\r\n    );\r\n\r\n    event finalizeShipment(uint256 indexed shipmentId, address indexed from);\r\n    event DeliveryDeadlineUpdated(uint256 newSeconds);\r\n    event RejectionDeadlineUpdated(uint256 newSeconds);\r\n    event RefundPercentageUpdated(uint256 newPercentage);\r\n    event MaxEntriesUpdated(uint256 newMax);\r\n\r\n    event ThirdPartyAuthorized(uint256 indexed shipmentId, address indexed thirdParty, address indexed seller);\r\n    event ThirdPartyRevoked(uint256 indexed shipmentId, address indexed thirdParty, address indexed seller);\r\n\r\n    constructor(address _marketplaceContract) {\r\n        owner = msg.sender;\r\n        marketplaceContract = _marketplaceContract;\r\n    }\r\n\r\n    modifier onlyMarketplace() {\r\n        require(msg.sender == marketplaceContract, \"Only marketplace can call this\");\r\n        _;\r\n    }\r\n\r\n    function createShipment(address nft, address seller, uint256 tokenId, uint256 price) external {\r\n        IERC721 nftContract = IERC721(nft);\r\n        require(nftContract.ownerOf(tokenId) == msg.sender, \"Only token owner can create shipment\");\r\n\r\n        shipmentCounter++;\r\n        Shipment storage s = shipments[shipmentCounter];\r\n\r\n        s.nft = nft;\r\n        s.tokenId = tokenId;\r\n        s.seller = seller;\r\n        s.buyer = msg.sender;\r\n        s.price = price;\r\n        s.status = Status.Created;\r\n        s.createdAt = block.timestamp;\r\n\r\n        nftToShipments[nft][tokenId].push(shipmentCounter);\r\n\r\n        emit ShipmentCreated(shipmentCounter, nft, tokenId, seller, msg.sender, price, block.timestamp);\r\n    }\r\n\r\n    function getLatestShipmentStatus(address nft, uint256 tokenId) external view returns (Status) {\r\n        uint256[] storage shipmentsList = nftToShipments[nft][tokenId];\r\n        require(shipmentsList.length > 0, \"No shipment found\");\r\n        uint256 latestShipmentId = shipmentsList[shipmentsList.length - 1];\r\n        return shipments[latestShipmentId].status;\r\n    }\r\n\r\n    function getAllShipmentsForNFT(address nft, uint256 tokenId) external view returns (uint256[] memory) {\r\n        return nftToShipments[nft][tokenId];\r\n    }\r\n\r\n    function authorizeThirdParty(uint256 shipmentId, address thirdParty) external onlySeller(shipmentId) {\r\n        Shipment storage s = shipments[shipmentId];\r\n        require(!s.isAuthorizedThirdParty[thirdParty], \"Already authorized\");\r\n\r\n        s.isAuthorizedThirdParty[thirdParty] = true;\r\n        s.authorizedThirdParties.push(thirdParty);\r\n\r\n        emit ThirdPartyAuthorized(shipmentId, thirdParty, s.seller);\r\n    }\r\n\r\n    function revokeThirdParty(uint256 shipmentId, address thirdParty) external onlySeller(shipmentId) {\r\n        Shipment storage s = shipments[shipmentId];\r\n        require(s.isAuthorizedThirdParty[thirdParty], \"Not authorized\");\r\n\r\n        s.isAuthorizedThirdParty[thirdParty] = false;\r\n\r\n        uint256 index = findThirdPartyIndex(s, thirdParty);\r\n        if (index < s.authorizedThirdParties.length - 1) {\r\n            s.authorizedThirdParties[index] = s.authorizedThirdParties[s.authorizedThirdParties.length - 1];\r\n        }\r\n        s.authorizedThirdParties.pop();\r\n\r\n        emit ThirdPartyRevoked(shipmentId, thirdParty, s.seller);\r\n    }\r\n\r\n    function findThirdPartyIndex(Shipment storage s, address thirdParty) private view returns (uint256) {\r\n        for (uint256 i = 0; i < s.authorizedThirdParties.length; i++) {\r\n            if (s.authorizedThirdParties[i] == thirdParty) {\r\n                return i;\r\n            }\r\n        }\r\n        revert(\"Third party not found\");\r\n    }\r\n\r\n    function updateShipment(uint256 shipmentId, bytes32 location) external nonReentrant {\r\n        Shipment storage s = shipments[shipmentId];\r\n\r\n        require(s.status != Status.Rejected && s.status != Status.Cancelled && s.status != Status.Delivered, \"Shipment closed\");\r\n        require(msg.sender == s.seller || s.isAuthorizedThirdParty[msg.sender], \"Unauthorized\");\r\n\r\n        require(s.locations.length < maxEntries && s.timestamps.length < maxEntries, \"Max entries reached\");\r\n\r\n        s.status = Status.InTransit;\r\n        s.locations.push(location);\r\n        s.timestamps.push(block.timestamp);\r\n\r\n        string memory role = msg.sender == s.seller ? \"Seller\" : \"ThirdParty\";\r\n        emit ShipmentUpdated(shipmentId, Status.InTransit, block.timestamp, msg.sender, role);\r\n    }\r\n\r\n    function markAsDelivered(uint256 shipmentId) external {\r\n        Shipment storage s = shipments[shipmentId];\r\n        require(block.timestamp <= s.createdAt + defaultDeadlineSeconds, \"Deadline passed\");\r\n        require(s.status != Status.Delivered, \"Already delivered\");\r\n        require(msg.sender == s.seller || s.isAuthorizedThirdParty[msg.sender], \"Unauthorized\");\r\n\r\n        s.status = Status.Delivered;\r\n        s.deliveredAt = block.timestamp;\r\n\r\n        string memory role = msg.sender == s.seller ? \"Seller\" : \"ThirdParty\";\r\n        emit ShipmentDelivered(shipmentId, block.timestamp, msg.sender, role);\r\n    }\r\n\r\n    function rejectDelivery(uint256 shipmentId, RejectionReason reason) external onlyBuyer(shipmentId) nonReentrant {\r\n        Shipment storage s = shipments[shipmentId];\r\n        require(s.status == Status.Delivered, \"Not delivered\");\r\n        require(block.timestamp <= s.deliveredAt + defaultRejectionDeadlineSeconds, \"Rejection window expired\");\r\n\r\n        s.status = Status.Rejected;\r\n\r\n        uint256 refundAmount = (s.price * refundPercentage) / 10000;\r\n        uint256 sellerAmount = (s.price * 125) / 10000;\r\n\r\n        payable(s.buyer).transfer(refundAmount);\r\n        payable(s.seller).transfer(sellerAmount);\r\n\r\n        IERC721(s.nft).transferFrom(s.buyer, s.seller, s.tokenId);\r\n\r\n        emit ShipmentRejected(shipmentId, s.buyer, refundAmount, reason, block.timestamp);\r\n    }\r\n\r\n    function cancelShipmentBySeller(uint256 shipmentId) external onlySeller(shipmentId) nonReentrant {\r\n        Shipment storage s = shipments[shipmentId];\r\n        require(s.status != Status.Delivered && s.status != Status.Rejected && s.status != Status.Cancelled, \"Cannot cancel\");\r\n\r\n        s.status = Status.Cancelled;\r\n\r\n        payable(s.buyer).transfer(s.price);\r\n        IERC721(s.nft).transferFrom(s.buyer, s.seller, s.tokenId);\r\n\r\n        emit ShipmentCancelled(shipmentId, s.seller, s.price, block.timestamp);\r\n    }\r\n\r\n    function autoCancelIfLate(uint256 shipmentId) external {\r\n        Shipment storage s = shipments[shipmentId];\r\n        require(s.status == Status.Created || s.status == Status.InTransit, \"Not eligible\");\r\n        require(block.timestamp > s.createdAt + defaultDeadlineSeconds, \"Deadline not passed\");\r\n\r\n        s.status = Status.Cancelled;\r\n\r\n        payable(s.buyer).transfer(s.price);\r\n        IERC721(s.nft).transferFrom(s.buyer, s.seller, s.tokenId);\r\n\r\n        emit ShipmentAutoCancelled(shipmentId, msg.sender, s.price, block.timestamp);\r\n    }\r\n\r\n    function finalizeDeliveredShipment(uint256 shipmentId) external nonReentrant {\r\n        Shipment storage s = shipments[shipmentId];\r\n        require(s.status == Status.Delivered, \"Not delivered\");\r\n        require(block.timestamp > s.deliveredAt + defaultRejectionDeadlineSeconds, \"Rejection window not passed\");\r\n\r\n        payable(s.seller).transfer(s.price);\r\n         s.status = Status.Finalized;\r\n        emit finalizeShipment(shipmentId, msg.sender);\r\n    }\r\n\r\n    function updateRefundPercentage(uint256 newPercentage) external onlyOwner {\r\n        require(newPercentage <= 10000, \"Max 100%\");\r\n        refundPercentage = newPercentage;\r\n        emit RefundPercentageUpdated(newPercentage);\r\n    }\r\n\r\n    function updateMaxEntries(uint256 newMax) external onlyOwner {\r\n        require(newMax > 0 && newMax <= 10, \"1-10 only\");\r\n        maxEntries = newMax;\r\n        emit MaxEntriesUpdated(newMax);\r\n    }\r\n\r\n    function updateDeliveryDeadline(uint256 newDeadlineSeconds) external onlyOwner {\r\n    require(newDeadlineSeconds > 0, \"Deadline must be positive\");\r\n    defaultDeadlineSeconds = newDeadlineSeconds;\r\n    emit DeliveryDeadlineUpdated(newDeadlineSeconds);\r\n}\r\n\r\nfunction updateRejectionDeadline(uint256 newRejectionDeadlineSeconds) external onlyOwner {\r\n    require(newRejectionDeadlineSeconds > 0, \"Deadline must be positive\");\r\n    defaultRejectionDeadlineSeconds = newRejectionDeadlineSeconds;\r\n    emit RejectionDeadlineUpdated(newRejectionDeadlineSeconds);\r\n}\r\n\r\n\r\n    function transferOwnership(address newOwner) external onlyOwner {\r\n        require(newOwner != address(0), \"Zero address\");\r\n        owner = newOwner;\r\n    }\r\n\r\n    function getShipmentDetails(uint256 shipmentId) external view onlyAuthorized(shipmentId) returns (\r\n        bytes32[] memory locations,\r\n        uint256[] memory timestamps,\r\n        address[] memory authorizedThirdParties\r\n    ) {\r\n        Shipment storage s = shipments[shipmentId];\r\n        return (s.locations, s.timestamps, s.authorizedThirdParties);\r\n    }\r\n\r\n    function refundListingFeeToSeller(address seller, uint256 amount) external onlyMarketplace {\r\n        require(seller != address(0), \"Invalid address\");\r\n        payable(seller).transfer(amount);\r\n    }\r\n\r\n    function getContractBalance() external view returns (uint256) {\r\n        return address(this).balance;\r\n    }\r\n\r\n    receive() external payable {}\r\n}\r\n",
  "sourcePath": "C:\\Users\\dives\\OneDrive\\Documents\\DeMa\\contracts\\NftTracking.sol",
  "compiler": {
    "name": "solc",
    "version": "0.8.29+commit.ab55807c.Emscripten.clang"
  },
  "schemaVersion": "3.4.16",
  "updatedAt": "2025-04-17T08:39:36.044Z",
  "networkType": "ethereum",
  "devdoc": {
    "kind": "dev",
    "methods": {},
    "version": 1
  },
  "userdoc": {
    "kind": "user",
    "methods": {},
    "version": 1
  }
}